{
  "_format": "hh-sol-artifact-1",
  "contractName": "StorageV1",
  "sourceName": "contracts/StorageV1.sol",
  "abi": [
    {
      "anonymous": false,
      "inputs": [
        {
          "indexed": false,
          "internalType": "address",
          "name": "previousAdmin",
          "type": "address"
        },
        {
          "indexed": false,
          "internalType": "address",
          "name": "newAdmin",
          "type": "address"
        }
      ],
      "name": "AdminChanged",
      "type": "event"
    },
    {
      "anonymous": false,
      "inputs": [
        {
          "indexed": true,
          "internalType": "address",
          "name": "beacon",
          "type": "address"
        }
      ],
      "name": "BeaconUpgraded",
      "type": "event"
    },
    {
      "anonymous": false,
      "inputs": [
        {
          "indexed": true,
          "internalType": "address",
          "name": "account",
          "type": "address"
        },
        {
          "indexed": false,
          "internalType": "string",
          "name": "data1",
          "type": "string"
        }
      ],
      "name": "Data1Set",
      "type": "event"
    },
    {
      "anonymous": false,
      "inputs": [
        {
          "indexed": true,
          "internalType": "address",
          "name": "previousOwner",
          "type": "address"
        },
        {
          "indexed": true,
          "internalType": "address",
          "name": "newOwner",
          "type": "address"
        }
      ],
      "name": "OwnershipTransferred",
      "type": "event"
    },
    {
      "anonymous": false,
      "inputs": [
        {
          "indexed": true,
          "internalType": "address",
          "name": "implementation",
          "type": "address"
        }
      ],
      "name": "Upgraded",
      "type": "event"
    },
    {
      "inputs": [],
      "name": "getData1",
      "outputs": [
        {
          "internalType": "string",
          "name": "",
          "type": "string"
        }
      ],
      "stateMutability": "view",
      "type": "function"
    },
    {
      "inputs": [],
      "name": "initialize",
      "outputs": [],
      "stateMutability": "nonpayable",
      "type": "function"
    },
    {
      "inputs": [],
      "name": "owner",
      "outputs": [
        {
          "internalType": "address",
          "name": "",
          "type": "address"
        }
      ],
      "stateMutability": "view",
      "type": "function"
    },
    {
      "inputs": [],
      "name": "renounceOwnership",
      "outputs": [],
      "stateMutability": "nonpayable",
      "type": "function"
    },
    {
      "inputs": [
        {
          "internalType": "string",
          "name": "data1_",
          "type": "string"
        }
      ],
      "name": "setData1",
      "outputs": [],
      "stateMutability": "nonpayable",
      "type": "function"
    },
    {
      "inputs": [
        {
          "internalType": "address",
          "name": "newOwner",
          "type": "address"
        }
      ],
      "name": "transferOwnership",
      "outputs": [],
      "stateMutability": "nonpayable",
      "type": "function"
    },
    {
      "inputs": [
        {
          "internalType": "address",
          "name": "newImplementation",
          "type": "address"
        }
      ],
      "name": "upgradeTo",
      "outputs": [],
      "stateMutability": "nonpayable",
      "type": "function"
    },
    {
      "inputs": [
        {
          "internalType": "address",
          "name": "newImplementation",
          "type": "address"
        },
        {
          "internalType": "bytes",
          "name": "data",
          "type": "bytes"
        }
      ],
      "name": "upgradeToAndCall",
      "outputs": [],
      "stateMutability": "payable",
      "type": "function"
    },
    {
      "inputs": [],
      "name": "version",
      "outputs": [
        {
          "internalType": "string",
          "name": "",
          "type": "string"
        }
      ],
      "stateMutability": "pure",
      "type": "function"
    }
  ],
  "bytecode": "0x60a06040523073ffffffffffffffffffffffffffffffffffffffff1660809073ffffffffffffffffffffffffffffffffffffffff1660601b81525034801561004657600080fd5b5060805160601c611a1f61007a6000396000818161023b015281816102ca015281816103ea01526104790152611a1f6000f3fe6080604052600436106100865760003560e01c8063715018a611610059578063715018a6146101245780638129fc1c1461013b5780638da5cb5b146101525780639944cc711461017d578063f2fde38b146101a857610086565b80630745f9d51461008b5780633659cfe6146100b45780634f1ef286146100dd57806354fd4d50146100f9575b600080fd5b34801561009757600080fd5b506100b260048036038101906100ad91906111a2565b6101d1565b005b3480156100c057600080fd5b506100db60048036038101906100d69190611125565b610239565b005b6100f760048036038101906100f2919061114e565b6103e8565b005b34801561010557600080fd5b5061010e610525565b60405161011b91906113c9565b60405180910390f35b34801561013057600080fd5b50610139610562565b005b34801561014757600080fd5b506101506105ea565b005b34801561015e57600080fd5b506101676106d6565b60405161017491906113ae565b60405180910390f35b34801561018957600080fd5b50610192610700565b60405161019f91906113c9565b60405180910390f35b3480156101b457600080fd5b506101cf60048036038101906101ca9190611125565b610792565b005b8060c990805190602001906101e7929190610f9d565b503373ffffffffffffffffffffffffffffffffffffffff167fb449e04aabb28b2a86020d65554ca6ecfe8e3e06f6907a794064520efbdab7e28260405161022e91906113c9565b60405180910390a250565b7f000000000000000000000000000000000000000000000000000000000000000073ffffffffffffffffffffffffffffffffffffffff163073ffffffffffffffffffffffffffffffffffffffff1614156102c8576040517f08c379a00000000000000000000000000000000000000000000000000000000081526004016102bf9061142b565b60405180910390fd5b7f000000000000000000000000000000000000000000000000000000000000000073ffffffffffffffffffffffffffffffffffffffff1661030761088a565b73ffffffffffffffffffffffffffffffffffffffff161461035d576040517f08c379a00000000000000000000000000000000000000000000000000000000081526004016103549061144b565b60405180910390fd5b610366816108e1565b6103e581600067ffffffffffffffff8111156103ab577f4e487b7100000000000000000000000000000000000000000000000000000000600052604160045260246000fd5b6040519080825280601f01601f1916602001820160405280156103dd5781602001600182028036833780820191505090505b506000610960565b50565b7f000000000000000000000000000000000000000000000000000000000000000073ffffffffffffffffffffffffffffffffffffffff163073ffffffffffffffffffffffffffffffffffffffff161415610477576040517f08c379a000000000000000000000000000000000000000000000000000000000815260040161046e9061142b565b60405180910390fd5b7f000000000000000000000000000000000000000000000000000000000000000073ffffffffffffffffffffffffffffffffffffffff166104b661088a565b73ffffffffffffffffffffffffffffffffffffffff161461050c576040517f08c379a00000000000000000000000000000000000000000000000000000000081526004016105039061144b565b60405180910390fd5b610515826108e1565b61052182826001610960565b5050565b60606040518060400160405280600481526020017f76312e3000000000000000000000000000000000000000000000000000000000815250905090565b61056a610b31565b73ffffffffffffffffffffffffffffffffffffffff166105886106d6565b73ffffffffffffffffffffffffffffffffffffffff16146105de576040517f08c379a00000000000000000000000000000000000000000000000000000000081526004016105d5906114ab565b60405180910390fd5b6105e86000610b39565b565b600060019054906101000a900460ff166106125760008054906101000a900460ff161561061b565b61061a610bff565b5b61065a576040517f08c379a00000000000000000000000000000000000000000000000000000000081526004016106519061146b565b60405180910390fd5b60008060019054906101000a900460ff1615905080156106aa576001600060016101000a81548160ff02191690831515021790555060016000806101000a81548160ff0219169083151502179055505b6106b2610c10565b80156106d35760008060016101000a81548160ff0219169083151502179055505b50565b6000603360009054906101000a900473ffffffffffffffffffffffffffffffffffffffff16905090565b606060c9805461070f90611638565b80601f016020809104026020016040519081016040528092919081815260200182805461073b90611638565b80156107885780601f1061075d57610100808354040283529160200191610788565b820191906000526020600020905b81548152906001019060200180831161076b57829003601f168201915b5050505050905090565b61079a610b31565b73ffffffffffffffffffffffffffffffffffffffff166107b86106d6565b73ffffffffffffffffffffffffffffffffffffffff161461080e576040517f08c379a0000000000000000000000000000000000000000000000000000000008152600401610805906114ab565b60405180910390fd5b600073ffffffffffffffffffffffffffffffffffffffff168173ffffffffffffffffffffffffffffffffffffffff16141561087e576040517f08c379a00000000000000000000000000000000000000000000000000000000081526004016108759061140b565b60405180910390fd5b61088781610b39565b50565b60006108b87f360894a13ba1a3210667c828492db98dca3e2076cc3735a920a3ca505d382bbc60001b610c71565b60000160009054906101000a900473ffffffffffffffffffffffffffffffffffffffff16905090565b6108e9610b31565b73ffffffffffffffffffffffffffffffffffffffff166109076106d6565b73ffffffffffffffffffffffffffffffffffffffff161461095d576040517f08c379a0000000000000000000000000000000000000000000000000000000008152600401610954906114ab565b60405180910390fd5b50565b600061096a61088a565b905061097584610c7b565b6000835111806109825750815b15610993576109918484610d34565b505b60006109c17f4910fdfa16fed3260ed0e7147f7cc6da11a60208b5b9406d12a635614ffd914360001b610e18565b90508060000160009054906101000a900460ff16610b2a5760018160000160006101000a81548160ff021916908315150217905550610a8d8583604051602401610a0b91906113ae565b6040516020818303038152906040527f3659cfe6000000000000000000000000000000000000000000000000000000007bffffffffffffffffffffffffffffffffffffffffffffffffffffffff19166020820180517bffffffffffffffffffffffffffffffffffffffffffffffffffffffff8381831617835250505050610d34565b5060008160000160006101000a81548160ff021916908315150217905550610ab361088a565b73ffffffffffffffffffffffffffffffffffffffff168273ffffffffffffffffffffffffffffffffffffffff1614610b20576040517f08c379a0000000000000000000000000000000000000000000000000000000008152600401610b17906113eb565b60405180910390fd5b610b2985610e22565b5b5050505050565b600033905090565b6000603360009054906101000a900473ffffffffffffffffffffffffffffffffffffffff16905081603360006101000a81548173ffffffffffffffffffffffffffffffffffffffff021916908373ffffffffffffffffffffffffffffffffffffffff1602179055508173ffffffffffffffffffffffffffffffffffffffff168173ffffffffffffffffffffffffffffffffffffffff167f8be0079c531659141344cd1fd0a4f28419497f9722a3daafe3b4186f6b6457e060405160405180910390a35050565b6000610c0a30610e71565b15905090565b600060019054906101000a900460ff16610c5f576040517f08c379a0000000000000000000000000000000000000000000000000000000008152600401610c56906114eb565b60405180910390fd5b610c67610e84565b610c6f610ed5565b565b6000819050919050565b610c8481610e71565b610cc3576040517f08c379a0000000000000000000000000000000000000000000000000000000008152600401610cba9061148b565b60405180910390fd5b80610cf07f360894a13ba1a3210667c828492db98dca3e2076cc3735a920a3ca505d382bbc60001b610c71565b60000160006101000a81548173ffffffffffffffffffffffffffffffffffffffff021916908373ffffffffffffffffffffffffffffffffffffffff16021790555050565b6060610d3f83610e71565b610d7e576040517f08c379a0000000000000000000000000000000000000000000000000000000008152600401610d75906114cb565b60405180910390fd5b6000808473ffffffffffffffffffffffffffffffffffffffff1684604051610da69190611397565b600060405180830381855af49150503d8060008114610de1576040519150601f19603f3d011682016040523d82523d6000602084013e610de6565b606091505b5091509150610e0e82826040518060600160405280602781526020016119c360279139610f36565b9250505092915050565b6000819050919050565b610e2b81610c7b565b8073ffffffffffffffffffffffffffffffffffffffff167fbc7cd75a20ee27fd9adebab32041f755214dbc6bffa90cc0225b39da2e5c2d3b60405160405180910390a250565b600080823b905060008111915050919050565b600060019054906101000a900460ff16610ed3576040517f08c379a0000000000000000000000000000000000000000000000000000000008152600401610eca906114eb565b60405180910390fd5b565b600060019054906101000a900460ff16610f24576040517f08c379a0000000000000000000000000000000000000000000000000000000008152600401610f1b906114eb565b60405180910390fd5b610f34610f2f610b31565b610b39565b565b60608315610f4657829050610f96565b600083511115610f595782518084602001fd5b816040517f08c379a0000000000000000000000000000000000000000000000000000000008152600401610f8d91906113c9565b60405180910390fd5b9392505050565b828054610fa990611638565b90600052602060002090601f016020900481019282610fcb5760008555611012565b82601f10610fe457805160ff1916838001178555611012565b82800160010185558215611012579182015b82811115611011578251825591602001919060010190610ff6565b5b50905061101f9190611023565b5090565b5b8082111561103c576000816000905550600101611024565b5090565b600061105361104e84611530565b61150b565b90508281526020810184848401111561106b57600080fd5b6110768482856115f6565b509392505050565b600061109161108c84611561565b61150b565b9050828152602081018484840111156110a957600080fd5b6110b48482856115f6565b509392505050565b6000813590506110cb816119ab565b92915050565b600082601f8301126110e257600080fd5b81356110f2848260208601611040565b91505092915050565b600082601f83011261110c57600080fd5b813561111c84826020860161107e565b91505092915050565b60006020828403121561113757600080fd5b6000611145848285016110bc565b91505092915050565b6000806040838503121561116157600080fd5b600061116f858286016110bc565b925050602083013567ffffffffffffffff81111561118c57600080fd5b611198858286016110d1565b9150509250929050565b6000602082840312156111b457600080fd5b600082013567ffffffffffffffff8111156111ce57600080fd5b6111da848285016110fb565b91505092915050565b6111ec816115c4565b82525050565b60006111fd82611592565b61120781856115a8565b9350611217818560208601611605565b80840191505092915050565b600061122e8261159d565b61123881856115b3565b9350611248818560208601611605565b611251816116f9565b840191505092915050565b6000611269602f836115b3565b91506112748261170a565b604082019050919050565b600061128c6026836115b3565b915061129782611759565b604082019050919050565b60006112af602c836115b3565b91506112ba826117a8565b604082019050919050565b60006112d2602c836115b3565b91506112dd826117f7565b604082019050919050565b60006112f5602e836115b3565b915061130082611846565b604082019050919050565b6000611318602d836115b3565b915061132382611895565b604082019050919050565b600061133b6020836115b3565b9150611346826118e4565b602082019050919050565b600061135e6026836115b3565b91506113698261190d565b604082019050919050565b6000611381602b836115b3565b915061138c8261195c565b604082019050919050565b60006113a382846111f2565b915081905092915050565b60006020820190506113c360008301846111e3565b92915050565b600060208201905081810360008301526113e38184611223565b905092915050565b600060208201905081810360008301526114048161125c565b9050919050565b600060208201905081810360008301526114248161127f565b9050919050565b60006020820190508181036000830152611444816112a2565b9050919050565b60006020820190508181036000830152611464816112c5565b9050919050565b60006020820190508181036000830152611484816112e8565b9050919050565b600060208201905081810360008301526114a48161130b565b9050919050565b600060208201905081810360008301526114c48161132e565b9050919050565b600060208201905081810360008301526114e481611351565b9050919050565b6000602082019050818103600083015261150481611374565b9050919050565b6000611515611526565b9050611521828261166a565b919050565b6000604051905090565b600067ffffffffffffffff82111561154b5761154a6116ca565b5b611554826116f9565b9050602081019050919050565b600067ffffffffffffffff82111561157c5761157b6116ca565b5b611585826116f9565b9050602081019050919050565b600081519050919050565b600081519050919050565b600081905092915050565b600082825260208201905092915050565b60006115cf826115d6565b9050919050565b600073ffffffffffffffffffffffffffffffffffffffff82169050919050565b82818337600083830152505050565b60005b83811015611623578082015181840152602081019050611608565b83811115611632576000848401525b50505050565b6000600282049050600182168061165057607f821691505b602082108114156116645761166361169b565b5b50919050565b611673826116f9565b810181811067ffffffffffffffff82111715611692576116916116ca565b5b80604052505050565b7f4e487b7100000000000000000000000000000000000000000000000000000000600052602260045260246000fd5b7f4e487b7100000000000000000000000000000000000000000000000000000000600052604160045260246000fd5b6000601f19601f8301169050919050565b7f45524331393637557067726164653a207570677261646520627265616b73206660008201527f7572746865722075706772616465730000000000000000000000000000000000602082015250565b7f4f776e61626c653a206e6577206f776e657220697320746865207a65726f206160008201527f6464726573730000000000000000000000000000000000000000000000000000602082015250565b7f46756e6374696f6e206d7573742062652063616c6c6564207468726f7567682060008201527f64656c656761746563616c6c0000000000000000000000000000000000000000602082015250565b7f46756e6374696f6e206d7573742062652063616c6c6564207468726f7567682060008201527f6163746976652070726f78790000000000000000000000000000000000000000602082015250565b7f496e697469616c697a61626c653a20636f6e747261637420697320616c72656160008201527f647920696e697469616c697a6564000000000000000000000000000000000000602082015250565b7f455243313936373a206e657720696d706c656d656e746174696f6e206973206e60008201527f6f74206120636f6e747261637400000000000000000000000000000000000000602082015250565b7f4f776e61626c653a2063616c6c6572206973206e6f7420746865206f776e6572600082015250565b7f416464726573733a2064656c65676174652063616c6c20746f206e6f6e2d636f60008201527f6e74726163740000000000000000000000000000000000000000000000000000602082015250565b7f496e697469616c697a61626c653a20636f6e7472616374206973206e6f74206960008201527f6e697469616c697a696e67000000000000000000000000000000000000000000602082015250565b6119b4816115c4565b81146119bf57600080fd5b5056fe416464726573733a206c6f772d6c6576656c2064656c65676174652063616c6c206661696c6564a2646970667358221220a363abfd53968b1ffab8d1f107862e3a59dd62431ba0eeb23625515c637a1e6764736f6c63430008040033",
  "linkReferences": {},
  "deployedLinkReferences": {}
}