{
  "_format": "hh-sol-artifact-1",
  "contractName": "Upgrader",
  "sourceName": "contracts/Upgrader.sol",
  "abi": [
    {
      "inputs": [],
      "stateMutability": "nonpayable",
      "type": "constructor"
    },
    {
      "inputs": [
        {
          "internalType": "address",
          "name": "what",
          "type": "address"
        }
      ],
      "name": "getImplementation",
      "outputs": [
        {
          "internalType": "address",
          "name": "",
          "type": "address"
        }
      ],
      "stateMutability": "nonpayable",
      "type": "function"
    },
    {
      "inputs": [
        {
          "internalType": "address",
          "name": "what",
          "type": "address"
        },
        {
          "internalType": "address",
          "name": "to",
          "type": "address"
        }
      ],
      "name": "upgrade",
      "outputs": [],
      "stateMutability": "nonpayable",
      "type": "function"
    },
    {
      "inputs": [
        {
          "internalType": "address",
          "name": "what",
          "type": "address"
        },
        {
          "internalType": "address",
          "name": "to",
          "type": "address"
        },
        {
          "internalType": "bytes",
          "name": "data",
          "type": "bytes"
        }
      ],
      "name": "upgradeAndCall",
      "outputs": [],
      "stateMutability": "nonpayable",
      "type": "function"
    }
  ],
  "bytecode": "0x60a060405234801561001057600080fd5b503373ffffffffffffffffffffffffffffffffffffffff1660808173ffffffffffffffffffffffffffffffffffffffff1660601b8152505060805160601c6106e96100736000396000818160c9015281816101de01526102e101526106e96000f3fe608060405234801561001057600080fd5b50600436106100415760003560e01c806315ac72ca146100465780639623609d1461007657806399a88ec414610092575b600080fd5b610060600480360381019061005b9190610439565b6100ae565b60405161006d9190610592565b60405180910390f35b610090600480360381019061008b91906104c7565b6101c5565b005b6100ac60048036038101906100a7919061048b565b6102c8565b005b60003373ffffffffffffffffffffffffffffffffffffffff167f000000000000000000000000000000000000000000000000000000000000000073ffffffffffffffffffffffffffffffffffffffff161461013e576040517f08c379a0000000000000000000000000000000000000000000000000000000008152600401610135906105df565b60405180910390fd5b8173ffffffffffffffffffffffffffffffffffffffff16635c60da1b6040518163ffffffff1660e01b8152600401602060405180830381600087803b15801561018657600080fd5b505af115801561019a573d6000803e3d6000fd5b505050506040513d601f19601f820116820180604052508101906101be9190610462565b9050919050565b3373ffffffffffffffffffffffffffffffffffffffff167f000000000000000000000000000000000000000000000000000000000000000073ffffffffffffffffffffffffffffffffffffffff1614610253576040517f08c379a000000000000000000000000000000000000000000000000000000000815260040161024a906105df565b60405180910390fd5b8373ffffffffffffffffffffffffffffffffffffffff16634f1ef2868484846040518463ffffffff1660e01b8152600401610290939291906105ad565b600060405180830381600087803b1580156102aa57600080fd5b505af11580156102be573d6000803e3d6000fd5b5050505050505050565b3373ffffffffffffffffffffffffffffffffffffffff167f000000000000000000000000000000000000000000000000000000000000000073ffffffffffffffffffffffffffffffffffffffff1614610356576040517f08c379a000000000000000000000000000000000000000000000000000000000815260040161034d906105df565b60405180910390fd5b8173ffffffffffffffffffffffffffffffffffffffff16633659cfe6826040518263ffffffff1660e01b815260040161038f9190610592565b600060405180830381600087803b1580156103a957600080fd5b505af11580156103bd573d6000803e3d6000fd5b505050505050565b6000813590506103d48161069c565b92915050565b6000815190506103e98161069c565b92915050565b60008083601f84011261040157600080fd5b8235905067ffffffffffffffff81111561041a57600080fd5b60208301915083600182028301111561043257600080fd5b9250929050565b60006020828403121561044b57600080fd5b6000610459848285016103c5565b91505092915050565b60006020828403121561047457600080fd5b6000610482848285016103da565b91505092915050565b6000806040838503121561049e57600080fd5b60006104ac858286016103c5565b92505060206104bd858286016103c5565b9150509250929050565b600080600080606085870312156104dd57600080fd5b60006104eb878288016103c5565b94505060206104fc878288016103c5565b935050604085013567ffffffffffffffff81111561051957600080fd5b610525878288016103ef565b925092505092959194509250565b61053c81610621565b82525050565b600061054e83856105ff565b935061055b838584610653565b61056483610662565b840190509392505050565b600061057c602083610610565b915061058782610673565b602082019050919050565b60006020820190506105a76000830184610533565b92915050565b60006040820190506105c26000830186610533565b81810360208301526105d5818486610542565b9050949350505050565b600060208201905081810360008301526105f88161056f565b9050919050565b600082825260208201905092915050565b600082825260208201905092915050565b600061062c82610633565b9050919050565b600073ffffffffffffffffffffffffffffffffffffffff82169050919050565b82818337600083830152505050565b6000601f19601f8301169050919050565b7f446570656e64656e6379496e6a6563746f723a204e6f7420616e206f776e6572600082015250565b6106a581610621565b81146106b057600080fd5b5056fea2646970667358221220addac32cc20c9db39c0d726956875d8c68787b41dc34870180039153159f959364736f6c63430008040033",
  "linkReferences": {},
  "deployedLinkReferences": {}
}