{
  "_format": "hh-sol-artifact-1",
  "contractName": "Registry",
  "sourceName": "contracts/Registry.sol",
  "abi": [
    {
      "anonymous": false,
      "inputs": [
        {
          "indexed": true,
          "internalType": "bytes32",
          "name": "role",
          "type": "bytes32"
        },
        {
          "indexed": true,
          "internalType": "bytes32",
          "name": "previousAdminRole",
          "type": "bytes32"
        },
        {
          "indexed": true,
          "internalType": "bytes32",
          "name": "newAdminRole",
          "type": "bytes32"
        }
      ],
      "name": "RoleAdminChanged",
      "type": "event"
    },
    {
      "anonymous": false,
      "inputs": [
        {
          "indexed": true,
          "internalType": "bytes32",
          "name": "role",
          "type": "bytes32"
        },
        {
          "indexed": true,
          "internalType": "address",
          "name": "account",
          "type": "address"
        },
        {
          "indexed": true,
          "internalType": "address",
          "name": "sender",
          "type": "address"
        }
      ],
      "name": "RoleGranted",
      "type": "event"
    },
    {
      "anonymous": false,
      "inputs": [
        {
          "indexed": true,
          "internalType": "bytes32",
          "name": "role",
          "type": "bytes32"
        },
        {
          "indexed": true,
          "internalType": "address",
          "name": "account",
          "type": "address"
        },
        {
          "indexed": true,
          "internalType": "address",
          "name": "sender",
          "type": "address"
        }
      ],
      "name": "RoleRevoked",
      "type": "event"
    },
    {
      "inputs": [],
      "name": "DEFAULT_ADMIN_ROLE",
      "outputs": [
        {
          "internalType": "bytes32",
          "name": "",
          "type": "bytes32"
        }
      ],
      "stateMutability": "view",
      "type": "function"
    },
    {
      "inputs": [],
      "name": "REGISTRY_ADMIN_ROLE",
      "outputs": [
        {
          "internalType": "bytes32",
          "name": "",
          "type": "bytes32"
        }
      ],
      "stateMutability": "view",
      "type": "function"
    },
    {
      "inputs": [],
      "name": "STORAGE_NAME",
      "outputs": [
        {
          "internalType": "bytes32",
          "name": "",
          "type": "bytes32"
        }
      ],
      "stateMutability": "view",
      "type": "function"
    },
    {
      "inputs": [
        {
          "internalType": "bytes32",
          "name": "name",
          "type": "bytes32"
        },
        {
          "internalType": "address",
          "name": "contractAddress",
          "type": "address"
        }
      ],
      "name": "addContract",
      "outputs": [],
      "stateMutability": "nonpayable",
      "type": "function"
    },
    {
      "inputs": [
        {
          "internalType": "bytes32",
          "name": "name",
          "type": "bytes32"
        },
        {
          "internalType": "address",
          "name": "contractAddress",
          "type": "address"
        }
      ],
      "name": "addProxyContract",
      "outputs": [],
      "stateMutability": "nonpayable",
      "type": "function"
    },
    {
      "inputs": [
        {
          "internalType": "bytes32",
          "name": "name",
          "type": "bytes32"
        }
      ],
      "name": "deleteContract",
      "outputs": [],
      "stateMutability": "nonpayable",
      "type": "function"
    },
    {
      "inputs": [
        {
          "internalType": "bytes32",
          "name": "name",
          "type": "bytes32"
        }
      ],
      "name": "getContract",
      "outputs": [
        {
          "internalType": "address",
          "name": "",
          "type": "address"
        }
      ],
      "stateMutability": "view",
      "type": "function"
    },
    {
      "inputs": [
        {
          "internalType": "bytes32",
          "name": "name",
          "type": "bytes32"
        }
      ],
      "name": "getImplementation",
      "outputs": [
        {
          "internalType": "address",
          "name": "",
          "type": "address"
        }
      ],
      "stateMutability": "nonpayable",
      "type": "function"
    },
    {
      "inputs": [
        {
          "internalType": "bytes32",
          "name": "role",
          "type": "bytes32"
        }
      ],
      "name": "getRoleAdmin",
      "outputs": [
        {
          "internalType": "bytes32",
          "name": "",
          "type": "bytes32"
        }
      ],
      "stateMutability": "view",
      "type": "function"
    },
    {
      "inputs": [],
      "name": "getStorageContract",
      "outputs": [
        {
          "internalType": "address",
          "name": "",
          "type": "address"
        }
      ],
      "stateMutability": "view",
      "type": "function"
    },
    {
      "inputs": [],
      "name": "getUpgrader",
      "outputs": [
        {
          "internalType": "address",
          "name": "",
          "type": "address"
        }
      ],
      "stateMutability": "view",
      "type": "function"
    },
    {
      "inputs": [
        {
          "internalType": "bytes32",
          "name": "role",
          "type": "bytes32"
        },
        {
          "internalType": "address",
          "name": "account",
          "type": "address"
        }
      ],
      "name": "grantRole",
      "outputs": [],
      "stateMutability": "nonpayable",
      "type": "function"
    },
    {
      "inputs": [
        {
          "internalType": "bytes32",
          "name": "name",
          "type": "bytes32"
        }
      ],
      "name": "hasContract",
      "outputs": [
        {
          "internalType": "bool",
          "name": "",
          "type": "bool"
        }
      ],
      "stateMutability": "view",
      "type": "function"
    },
    {
      "inputs": [
        {
          "internalType": "bytes32",
          "name": "role",
          "type": "bytes32"
        },
        {
          "internalType": "address",
          "name": "account",
          "type": "address"
        }
      ],
      "name": "hasRole",
      "outputs": [
        {
          "internalType": "bool",
          "name": "",
          "type": "bool"
        }
      ],
      "stateMutability": "view",
      "type": "function"
    },
    {
      "inputs": [],
      "name": "initRegistry",
      "outputs": [],
      "stateMutability": "nonpayable",
      "type": "function"
    },
    {
      "inputs": [
        {
          "internalType": "bytes32",
          "name": "name",
          "type": "bytes32"
        }
      ],
      "name": "injectDependencies",
      "outputs": [],
      "stateMutability": "nonpayable",
      "type": "function"
    },
    {
      "inputs": [
        {
          "internalType": "bytes32",
          "name": "name",
          "type": "bytes32"
        },
        {
          "internalType": "address",
          "name": "contractAddress",
          "type": "address"
        }
      ],
      "name": "justAddProxyContract",
      "outputs": [],
      "stateMutability": "nonpayable",
      "type": "function"
    },
    {
      "inputs": [
        {
          "internalType": "bytes32",
          "name": "role",
          "type": "bytes32"
        },
        {
          "internalType": "address",
          "name": "account",
          "type": "address"
        }
      ],
      "name": "renounceRole",
      "outputs": [],
      "stateMutability": "nonpayable",
      "type": "function"
    },
    {
      "inputs": [
        {
          "internalType": "bytes32",
          "name": "role",
          "type": "bytes32"
        },
        {
          "internalType": "address",
          "name": "account",
          "type": "address"
        }
      ],
      "name": "revokeRole",
      "outputs": [],
      "stateMutability": "nonpayable",
      "type": "function"
    },
    {
      "inputs": [
        {
          "internalType": "bytes4",
          "name": "interfaceId",
          "type": "bytes4"
        }
      ],
      "name": "supportsInterface",
      "outputs": [
        {
          "internalType": "bool",
          "name": "",
          "type": "bool"
        }
      ],
      "stateMutability": "view",
      "type": "function"
    },
    {
      "inputs": [
        {
          "internalType": "bytes32",
          "name": "name",
          "type": "bytes32"
        },
        {
          "internalType": "address",
          "name": "newImplementation",
          "type": "address"
        }
      ],
      "name": "upgradeContract",
      "outputs": [],
      "stateMutability": "nonpayable",
      "type": "function"
    },
    {
      "inputs": [
        {
          "internalType": "bytes32",
          "name": "name",
          "type": "bytes32"
        },
        {
          "internalType": "address",
          "name": "newImplementation",
          "type": "address"
        },
        {
          "internalType": "string",
          "name": "functionSignature",
          "type": "string"
        }
      ],
      "name": "upgradeContractAndCall",
      "outputs": [],
      "stateMutability": "nonpayable",
      "type": "function"
    }
  ],
  "bytecode": "0x608060405234801561001057600080fd5b50615321806100206000396000f3fe60806040523480156200001157600080fd5b5060043610620001605760003560e01c8063a217fddf11620000c9578063dec0257d1162000087578063dec0257d14620003c5578063e16c7d9814620003e5578063e4d7437b146200041b578063f0342125146200043d578063f3a1c677146200045f578063f83a1ff4146200047f5762000160565b8063a217fddf146200030b578063ad0aa0e4146200032d578063bf584c4b1462000363578063d547741f1462000385578063d6ff86a314620003a55762000160565b80633c2e082811620001235780633c2e0828146200021d5780635188f996146200025357806391d1485414620002735780639415928314620002a957806397f7433214620002c95780639c44d17a14620002eb5762000160565b806301ffc9a7146200016557806307ea0780146200019b578063248a9ca314620001a75780632f2ff15d14620001dd57806336568abe14620001fd575b600080fd5b6200018360048036038101906200017d919062002421565b6200049f565b604051620001929190620028e5565b60405180910390f35b620001a56200051c565b005b620001c56004803603810190620001bf919062002340565b620006d7565b604051620001d4919062002902565b60405180910390f35b620001fb6004803603810190620001f591906200236c565b620006f7565b005b6200021b60048036038101906200021591906200236c565b62000728565b005b6200023b600480360381019062000235919062002340565b620007b2565b6040516200024a919062002815565b60405180910390f35b6200027160048036038101906200026b91906200236c565b620009a8565b005b6200029160048036038101906200028b91906200236c565b62000adf565b604051620002a09190620028e5565b60405180910390f35b620002c76004803603810190620002c191906200236c565b62000b4a565b005b620002d362000d3b565b604051620002e2919062002902565b60405180910390f35b6200030960048036038101906200030391906200236c565b62000d5f565b005b6200031562000ded565b60405162000324919062002902565b60405180910390f35b6200034b600480360381019062000345919062002340565b62000df4565b6040516200035a9190620028e5565b60405180910390f35b6200036d62000e60565b6040516200037c919062002902565b60405180910390f35b620003a360048036038101906200039d91906200236c565b62000e84565b005b620003c36004803603810190620003bd9190620023ad565b62000eb5565b005b620003e36004803603810190620003dd919062002340565b62000f7a565b005b620004036004803603810190620003fd919062002340565b62001149565b60405162000412919062002815565b60405180910390f35b620004256200122b565b60405162000434919062002815565b60405180910390f35b62000447620012e9565b60405162000456919062002815565b60405180910390f35b6200047d60048036038101906200047791906200236c565b6200131b565b005b6200049d600480360381019062000497919062002340565b620014aa565b005b60007f7965db0b000000000000000000000000000000000000000000000000000000007bffffffffffffffffffffffffffffffffffffffffffffffffffffffff1916827bffffffffffffffffffffffffffffffffffffffffffffffffffffffff19161480620005155750620005148262001763565b5b9050919050565b600060019054906101000a900460ff16620005465760008054906101000a900460ff161562000551565b62000550620017cd565b5b62000593576040517f08c379a00000000000000000000000000000000000000000000000000000000081526004016200058a9062002a4e565b60405180910390fd5b60008060019054906101000a900460ff161590508015620005e4576001600060016101000a81548160ff02191690831515021790555060016000806101000a81548160ff0219169083151502179055505b620005ee620017e0565b6200061a7fbb28eb1a0cfabcecf96003fab466159bc2e051e49d79baf049890044e90724403362001852565b620006467fbb28eb1a0cfabcecf96003fab466159bc2e051e49d79baf049890044e90724408062001862565b60405162000654906200224f565b604051809103906000f08015801562000671573d6000803e3d6000fd5b50609760006101000a81548173ffffffffffffffffffffffffffffffffffffffff021916908373ffffffffffffffffffffffffffffffffffffffff1602179055508015620006d45760008060016101000a81548160ff0219169083151502179055505b50565b600060656000838152602001908152602001600020600101549050919050565b6200070282620006d7565b620007178162000711620018c0565b620018c8565b62000723838362001970565b505050565b62000732620018c0565b73ffffffffffffffffffffffffffffffffffffffff168173ffffffffffffffffffffffffffffffffffffffff1614620007a2576040517f08c379a0000000000000000000000000000000000000000000000000000000008152600401620007999062002af8565b60405180910390fd5b620007ae828262001a56565b5050565b6000806098600084815260200190815260200160002060009054906101000a900473ffffffffffffffffffffffffffffffffffffffff169050600073ffffffffffffffffffffffffffffffffffffffff168173ffffffffffffffffffffffffffffffffffffffff1614156200085e576040517f08c379a0000000000000000000000000000000000000000000000000000000008152600401620008559062002a92565b60405180910390fd5b609960008273ffffffffffffffffffffffffffffffffffffffff1673ffffffffffffffffffffffffffffffffffffffff16815260200190815260200160002060009054906101000a900460ff16620008ed576040517f08c379a0000000000000000000000000000000000000000000000000000000008152600401620008e49062002a70565b60405180910390fd5b609760009054906101000a900473ffffffffffffffffffffffffffffffffffffffff1673ffffffffffffffffffffffffffffffffffffffff166315ac72ca826040518263ffffffff1660e01b81526004016200094a919062002815565b602060405180830381600087803b1580156200096557600080fd5b505af11580156200097a573d6000803e3d6000fd5b505050506040513d601f19601f82011682018060405250810190620009a0919062002314565b915050919050565b620009d47fbb28eb1a0cfabcecf96003fab466159bc2e051e49d79baf049890044e90724403362000adf565b62000a16576040517f08c379a000000000000000000000000000000000000000000000000000000000815260040162000a0d9062002982565b60405180910390fd5b600073ffffffffffffffffffffffffffffffffffffffff168173ffffffffffffffffffffffffffffffffffffffff16141562000a89576040517f08c379a000000000000000000000000000000000000000000000000000000000815260040162000a8090620029a4565b60405180910390fd5b806098600084815260200190815260200160002060006101000a81548173ffffffffffffffffffffffffffffffffffffffff021916908373ffffffffffffffffffffffffffffffffffffffff1602179055505050565b60006065600084815260200190815260200160002060000160008373ffffffffffffffffffffffffffffffffffffffff1673ffffffffffffffffffffffffffffffffffffffff16815260200190815260200160002060009054906101000a900460ff16905092915050565b62000b767fbb28eb1a0cfabcecf96003fab466159bc2e051e49d79baf049890044e90724403362000adf565b62000bb8576040517f08c379a000000000000000000000000000000000000000000000000000000000815260040162000baf9062002982565b60405180910390fd5b600073ffffffffffffffffffffffffffffffffffffffff168173ffffffffffffffffffffffffffffffffffffffff16141562000c2b576040517f08c379a000000000000000000000000000000000000000000000000000000000815260040162000c2290620029a4565b60405180910390fd5b600081609760009054906101000a900473ffffffffffffffffffffffffffffffffffffffff1660405162000c5f906200225d565b62000c6c929190620028a3565b604051809103906000f08015801562000c89573d6000803e3d6000fd5b509050806098600085815260200190815260200160002060006101000a81548173ffffffffffffffffffffffffffffffffffffffff021916908373ffffffffffffffffffffffffffffffffffffffff1602179055506001609960008373ffffffffffffffffffffffffffffffffffffffff1673ffffffffffffffffffffffffffffffffffffffff16815260200190815260200160002060006101000a81548160ff021916908315150217905550505050565b7fed8057380bf15f0d28f1e5655867f6697d716ad86b16c6a3fa8ef4bb5c5696c081565b62000d8b7fbb28eb1a0cfabcecf96003fab466159bc2e051e49d79baf049890044e90724403362000adf565b62000dcd576040517f08c379a000000000000000000000000000000000000000000000000000000000815260040162000dc49062002982565b60405180910390fd5b62000de982826040518060200160405280600081525062001b3d565b5050565b6000801b81565b60008073ffffffffffffffffffffffffffffffffffffffff166098600084815260200190815260200160002060009054906101000a900473ffffffffffffffffffffffffffffffffffffffff1673ffffffffffffffffffffffffffffffffffffffff1614159050919050565b7fbb28eb1a0cfabcecf96003fab466159bc2e051e49d79baf049890044e907244081565b62000e8f82620006d7565b62000ea48162000e9e620018c0565b620018c8565b62000eb0838362001a56565b505050565b62000ee17fbb28eb1a0cfabcecf96003fab466159bc2e051e49d79baf049890044e90724403362000adf565b62000f23576040517f08c379a000000000000000000000000000000000000000000000000000000000815260040162000f1a9062002982565b60405180910390fd5b62000f74848484848080601f016020809104026020016040519081016040528093929190818152602001838380828437600081840152601f19601f8201169050808301925050505050505062001b3d565b50505050565b62000fa67fbb28eb1a0cfabcecf96003fab466159bc2e051e49d79baf049890044e90724403362000adf565b62000fe8576040517f08c379a000000000000000000000000000000000000000000000000000000000815260040162000fdf9062002982565b60405180910390fd5b600073ffffffffffffffffffffffffffffffffffffffff166098600083815260200190815260200160002060009054906101000a900473ffffffffffffffffffffffffffffffffffffffff1673ffffffffffffffffffffffffffffffffffffffff1614156200108e576040517f08c379a0000000000000000000000000000000000000000000000000000000008152600401620010859062002a0a565b60405180910390fd5b609960006098600084815260200190815260200160002060009054906101000a900473ffffffffffffffffffffffffffffffffffffffff1673ffffffffffffffffffffffffffffffffffffffff1673ffffffffffffffffffffffffffffffffffffffff16815260200190815260200160002060006101000a81549060ff02191690556098600082815260200190815260200160002060006101000a81549073ffffffffffffffffffffffffffffffffffffffff021916905550565b60008073ffffffffffffffffffffffffffffffffffffffff166098600084815260200190815260200160002060009054906101000a900473ffffffffffffffffffffffffffffffffffffffff1673ffffffffffffffffffffffffffffffffffffffff161415620011f0576040517f08c379a0000000000000000000000000000000000000000000000000000000008152600401620011e79062002a2c565b60405180910390fd5b6098600083815260200190815260200160002060009054906101000a900473ffffffffffffffffffffffffffffffffffffffff169050919050565b60008073ffffffffffffffffffffffffffffffffffffffff16609760009054906101000a900473ffffffffffffffffffffffffffffffffffffffff1673ffffffffffffffffffffffffffffffffffffffff161415620012c1576040517f08c379a0000000000000000000000000000000000000000000000000000000008152600401620012b890620029c6565b60405180910390fd5b609760009054906101000a900473ffffffffffffffffffffffffffffffffffffffff16905090565b6000620013167fed8057380bf15f0d28f1e5655867f6697d716ad86b16c6a3fa8ef4bb5c5696c062001149565b905090565b620013477fbb28eb1a0cfabcecf96003fab466159bc2e051e49d79baf049890044e90724403362000adf565b62001389576040517f08c379a0000000000000000000000000000000000000000000000000000000008152600401620013809062002982565b60405180910390fd5b600073ffffffffffffffffffffffffffffffffffffffff168173ffffffffffffffffffffffffffffffffffffffff161415620013fc576040517f08c379a0000000000000000000000000000000000000000000000000000000008152600401620013f390620029a4565b60405180910390fd5b806098600084815260200190815260200160002060006101000a81548173ffffffffffffffffffffffffffffffffffffffff021916908373ffffffffffffffffffffffffffffffffffffffff1602179055506001609960008373ffffffffffffffffffffffffffffffffffffffff1673ffffffffffffffffffffffffffffffffffffffff16815260200190815260200160002060006101000a81548160ff0219169083151502179055505050565b620014d67fbb28eb1a0cfabcecf96003fab466159bc2e051e49d79baf049890044e90724403362000adf565b62001518576040517f08c379a00000000000000000000000000000000000000000000000000000000081526004016200150f9062002982565b60405180910390fd5b60006098600083815260200190815260200160002060009054906101000a900473ffffffffffffffffffffffffffffffffffffffff169050600073ffffffffffffffffffffffffffffffffffffffff168173ffffffffffffffffffffffffffffffffffffffff161415620015c3576040517f08c379a0000000000000000000000000000000000000000000000000000000008152600401620015ba90620029e8565b60405180910390fd5b6000819050600073ffffffffffffffffffffffffffffffffffffffff168173ffffffffffffffffffffffffffffffffffffffff1663461716106040518163ffffffff1660e01b815260040160206040518083038186803b1580156200162757600080fd5b505afa1580156200163c573d6000803e3d6000fd5b505050506040513d601f19601f8201168201806040525081019062001662919062002314565b73ffffffffffffffffffffffffffffffffffffffff161415620016ef578073ffffffffffffffffffffffffffffffffffffffff16638cb941cc306040518263ffffffff1660e01b8152600401620016ba919062002815565b600060405180830381600087803b158015620016d557600080fd5b505af1158015620016ea573d6000803e3d6000fd5b505050505b8073ffffffffffffffffffffffffffffffffffffffff16638389cb18306040518263ffffffff1660e01b81526004016200172a91906200291f565b600060405180830381600087803b1580156200174557600080fd5b505af11580156200175a573d6000803e3d6000fd5b50505050505050565b60007f01ffc9a7000000000000000000000000000000000000000000000000000000007bffffffffffffffffffffffffffffffffffffffffffffffffffffffff1916827bffffffffffffffffffffffffffffffffffffffffffffffffffffffff1916149050919050565b6000620017da3062001e31565b15905090565b600060019054906101000a900460ff1662001832576040517f08c379a0000000000000000000000000000000000000000000000000000000008152600401620018299062002ab4565b60405180910390fd5b6200183c62001e44565b6200184662001e98565b6200185062001eec565b565b6200185e828262001970565b5050565b60006200186f83620006d7565b90508160656000858152602001908152602001600020600101819055508181847fbd79b86ffe0ab8e8776151514217cd7cacd52c909f66475c3af44e129f0b00ff60405160405180910390a4505050565b600033905090565b620018d4828262000adf565b6200196c57620018fc8173ffffffffffffffffffffffffffffffffffffffff16601462001f40565b6200190c8360001c602062001f40565b6040516020016200191f929190620027d3565b6040516020818303038152906040526040517f08c379a00000000000000000000000000000000000000000000000000000000081526004016200196391906200293c565b60405180910390fd5b5050565b6200197c828262000adf565b62001a525760016065600084815260200190815260200160002060000160008373ffffffffffffffffffffffffffffffffffffffff1673ffffffffffffffffffffffffffffffffffffffff16815260200190815260200160002060006101000a81548160ff021916908315150217905550620019f7620018c0565b73ffffffffffffffffffffffffffffffffffffffff168173ffffffffffffffffffffffffffffffffffffffff16837f2f8788117e7eff1d82e926ec794901d17c78024a50270940304540a733656f0d60405160405180910390a45b5050565b62001a62828262000adf565b1562001b395760006065600084815260200190815260200160002060000160008373ffffffffffffffffffffffffffffffffffffffff1673ffffffffffffffffffffffffffffffffffffffff16815260200190815260200160002060006101000a81548160ff02191690831515021790555062001ade620018c0565b73ffffffffffffffffffffffffffffffffffffffff168173ffffffffffffffffffffffffffffffffffffffff16837ff6391f5c32d9c69d2a47ea670b442974b53935d1edc7fd64eb21e047a839171b60405160405180910390a45b5050565b60006098600085815260200190815260200160002060009054906101000a900473ffffffffffffffffffffffffffffffffffffffff169050600073ffffffffffffffffffffffffffffffffffffffff168173ffffffffffffffffffffffffffffffffffffffff16141562001be8576040517f08c379a000000000000000000000000000000000000000000000000000000000815260040162001bdf9062002ad6565b60405180910390fd5b609960008273ffffffffffffffffffffffffffffffffffffffff1673ffffffffffffffffffffffffffffffffffffffff16815260200190815260200160002060009054906101000a900460ff1662001c77576040517f08c379a000000000000000000000000000000000000000000000000000000000815260040162001c6e9062002a70565b60405180910390fd5b60008251111562001d9757609760009054906101000a900473ffffffffffffffffffffffffffffffffffffffff1673ffffffffffffffffffffffffffffffffffffffff16639623609d8285856040516024016040516020818303038152906040529060405162001ce89190620027ba565b60405180910390207bffffffffffffffffffffffffffffffffffffffffffffffffffffffff19166020820180517bffffffffffffffffffffffffffffffffffffffffffffffffffffffff83818316178352505050506040518463ffffffff1660e01b815260040162001d5d939291906200285f565b600060405180830381600087803b15801562001d7857600080fd5b505af115801562001d8d573d6000803e3d6000fd5b5050505062001e2b565b609760009054906101000a900473ffffffffffffffffffffffffffffffffffffffff1673ffffffffffffffffffffffffffffffffffffffff166399a88ec482856040518363ffffffff1660e01b815260040162001df692919062002832565b600060405180830381600087803b15801562001e1157600080fd5b505af115801562001e26573d6000803e3d6000fd5b505050505b50505050565b600080823b905060008111915050919050565b600060019054906101000a900460ff1662001e96576040517f08c379a000000000000000000000000000000000000000000000000000000000815260040162001e8d9062002ab4565b60405180910390fd5b565b600060019054906101000a900460ff1662001eea576040517f08c379a000000000000000000000000000000000000000000000000000000000815260040162001ee19062002ab4565b60405180910390fd5b565b600060019054906101000a900460ff1662001f3e576040517f08c379a000000000000000000000000000000000000000000000000000000000815260040162001f359062002ab4565b60405180910390fd5b565b60606000600283600262001f55919062002bba565b62001f61919062002b5d565b67ffffffffffffffff81111562001fa1577f4e487b7100000000000000000000000000000000000000000000000000000000600052604160045260246000fd5b6040519080825280601f01601f19166020018201604052801562001fd45781602001600182028036833780820191505090505b5090507f30000000000000000000000000000000000000000000000000000000000000008160008151811062002033577f4e487b7100000000000000000000000000000000000000000000000000000000600052603260045260246000fd5b60200101907effffffffffffffffffffffffffffffffffffffffffffffffffffffffffffff1916908160001a9053507f780000000000000000000000000000000000000000000000000000000000000081600181518110620020be577f4e487b7100000000000000000000000000000000000000000000000000000000600052603260045260246000fd5b60200101907effffffffffffffffffffffffffffffffffffffffffffffffffffffffffffff1916908160001a9053506000600184600262002100919062002bba565b6200210c919062002b5d565b90505b6001811115620021fe577f3031323334353637383961626364656600000000000000000000000000000000600f86166010811062002176577f4e487b7100000000000000000000000000000000000000000000000000000000600052603260045260246000fd5b1a60f81b828281518110620021b4577f4e487b7100000000000000000000000000000000000000000000000000000000600052603260045260246000fd5b60200101907effffffffffffffffffffffffffffffffffffffffffffffffffffffffffffff1916908160001a905350600485901c945080620021f69062002cf9565b90506200210f565b506000841462002245576040517f08c379a00000000000000000000000000000000000000000000000000000000081526004016200223c9062002960565b60405180910390fd5b8091505092915050565b61075c806200317783390190565b611a1980620038d383390190565b6000813590506200227c8162003128565b92915050565b600081519050620022938162003128565b92915050565b600081359050620022aa8162003142565b92915050565b600081359050620022c1816200315c565b92915050565b60008083601f840112620022da57600080fd5b8235905067ffffffffffffffff811115620022f457600080fd5b6020830191508360018202830111156200230d57600080fd5b9250929050565b6000602082840312156200232757600080fd5b6000620023378482850162002282565b91505092915050565b6000602082840312156200235357600080fd5b6000620023638482850162002299565b91505092915050565b600080604083850312156200238057600080fd5b6000620023908582860162002299565b9250506020620023a3858286016200226b565b9150509250929050565b60008060008060608587031215620023c457600080fd5b6000620023d48782880162002299565b9450506020620023e7878288016200226b565b935050604085013567ffffffffffffffff8111156200240557600080fd5b6200241387828801620022c7565b925092505092959194509250565b6000602082840312156200243457600080fd5b60006200244484828501620022b0565b91505092915050565b620024588162002c1b565b82525050565b620024698162002c2f565b82525050565b6200247a8162002c3b565b82525050565b60006200248d8262002b1a565b62002499818562002b30565b9350620024ab81856020860162002cc3565b620024b68162002d57565b840191505092915050565b620024cc8162002c9b565b82525050565b6000620024df8262002b25565b620024eb818562002b41565b9350620024fd81856020860162002cc3565b620025088162002d57565b840191505092915050565b6000620025208262002b25565b6200252c818562002b52565b93506200253e81856020860162002cc3565b80840191505092915050565b60006200255960208362002b41565b9150620025668262002d68565b602082019050919050565b60006200258060208362002b41565b91506200258d8262002d91565b602082019050919050565b6000620025a760238362002b41565b9150620025b48262002dba565b604082019050919050565b6000620025ce60168362002b41565b9150620025db8262002e09565b602082019050919050565b6000620025f560378362002b41565b9150620026028262002e32565b604082019050919050565b60006200261c60338362002b41565b9150620026298262002e81565b604082019050919050565b60006200264360308362002b41565b9150620026508262002ed0565b604082019050919050565b60006200266a602e8362002b41565b9150620026778262002f1f565b604082019050919050565b600062002691601e8362002b41565b91506200269e8262002f6e565b602082019050919050565b6000620026b860368362002b41565b9150620026c58262002f97565b604082019050919050565b6000620026df60008362002b30565b9150620026ec8262002fe6565b600082019050919050565b600062002706602b8362002b41565b9150620027138262002fe9565b604082019050919050565b60006200272d60178362002b52565b91506200273a8262003038565b601782019050919050565b60006200275460358362002b41565b9150620027618262003061565b604082019050919050565b60006200277b60118362002b52565b91506200278882620030b0565b601182019050919050565b6000620027a2602f8362002b41565b9150620027af82620030d9565b604082019050919050565b6000620027c8828462002513565b915081905092915050565b6000620027e0826200271e565b9150620027ee828562002513565b9150620027fb826200276c565b915062002809828462002513565b91508190509392505050565b60006020820190506200282c60008301846200244d565b92915050565b60006040820190506200284960008301856200244d565b6200285860208301846200244d565b9392505050565b60006060820190506200287660008301866200244d565b6200288560208301856200244d565b818103604083015262002899818462002480565b9050949350505050565b6000606082019050620028ba60008301856200244d565b620028c960208301846200244d565b8181036040830152620028dc81620026d0565b90509392505050565b6000602082019050620028fc60008301846200245e565b92915050565b60006020820190506200291960008301846200246f565b92915050565b6000602082019050620029366000830184620024c1565b92915050565b60006020820190508181036000830152620029588184620024d2565b905092915050565b600060208201905081810360008301526200297b816200254a565b9050919050565b600060208201905081810360008301526200299d8162002571565b9050919050565b60006020820190508181036000830152620029bf8162002598565b9050919050565b60006020820190508181036000830152620029e181620025bf565b9050919050565b6000602082019050818103600083015262002a0381620025e6565b9050919050565b6000602082019050818103600083015262002a25816200260d565b9050919050565b6000602082019050818103600083015262002a478162002634565b9050919050565b6000602082019050818103600083015262002a69816200265b565b9050919050565b6000602082019050818103600083015262002a8b8162002682565b9050919050565b6000602082019050818103600083015262002aad81620026a9565b9050919050565b6000602082019050818103600083015262002acf81620026f7565b9050919050565b6000602082019050818103600083015262002af18162002745565b9050919050565b6000602082019050818103600083015262002b138162002793565b9050919050565b600081519050919050565b600081519050919050565b600082825260208201905092915050565b600082825260208201905092915050565b600081905092915050565b600062002b6a8262002c91565b915062002b778362002c91565b9250827fffffffffffffffffffffffffffffffffffffffffffffffffffffffffffffffff0382111562002baf5762002bae62002d28565b5b828201905092915050565b600062002bc78262002c91565b915062002bd48362002c91565b9250817fffffffffffffffffffffffffffffffffffffffffffffffffffffffffffffffff048311821515161562002c105762002c0f62002d28565b5b828202905092915050565b600062002c288262002c71565b9050919050565b60008115159050919050565b6000819050919050565b60007fffffffff0000000000000000000000000000000000000000000000000000000082169050919050565b600073ffffffffffffffffffffffffffffffffffffffff82169050919050565b6000819050919050565b600062002ca88262002caf565b9050919050565b600062002cbc8262002c71565b9050919050565b60005b8381101562002ce357808201518184015260208101905062002cc6565b8381111562002cf3576000848401525b50505050565b600062002d068262002c91565b9150600082141562002d1d5762002d1c62002d28565b5b600182039050919050565b7f4e487b7100000000000000000000000000000000000000000000000000000000600052601160045260246000fd5b6000601f19601f8301169050919050565b7f537472696e67733a20686578206c656e67746820696e73756666696369656e74600082015250565b7f52656769737472793a2043616c6c6572206973206e6f7420616e2061646d696e600082015250565b7f52656769737472793a204e756c6c206164647265737320697320666f7262696460008201527f64656e0000000000000000000000000000000000000000000000000000000000602082015250565b7f52656769737472793a2042616420757067726164657200000000000000000000600082015250565b7f52656769737472792e696e6a656374446570656e64656e636965733a2054686960008201527f73206d617070696e6720646f65736e2774206578697374000000000000000000602082015250565b7f52656769737472792e64656c657465436f6e74726163743a2054686973206d6160008201527f7070696e6720646f65736e277420657869737400000000000000000000000000602082015250565b7f52656769737472792e676574436f6e74726163743a2054686973206d6170706960008201527f6e6720646f65736e277420657869737400000000000000000000000000000000602082015250565b7f496e697469616c697a61626c653a20636f6e747261637420697320616c72656160008201527f647920696e697469616c697a6564000000000000000000000000000000000000602082015250565b7f52656769737472793a204e6f7420612070726f787920636f6e74726163740000600082015250565b7f52656769737472792e676574496d706c656d656e746174696f6e3a205468697360008201527f206d617070696e6720646f65736e277420657869737400000000000000000000602082015250565b50565b7f496e697469616c697a61626c653a20636f6e7472616374206973206e6f74206960008201527f6e697469616c697a696e67000000000000000000000000000000000000000000602082015250565b7f416363657373436f6e74726f6c3a206163636f756e7420000000000000000000600082015250565b7f52656769737472792e5f75706772616465436f6e74726163743a20546869732060008201527f6d617070696e6720646f65736e27742065786973740000000000000000000000602082015250565b7f206973206d697373696e6720726f6c6520000000000000000000000000000000600082015250565b7f416363657373436f6e74726f6c3a2063616e206f6e6c792072656e6f756e636560008201527f20726f6c657320666f722073656c660000000000000000000000000000000000602082015250565b620031338162002c1b565b81146200313f57600080fd5b50565b6200314d8162002c3b565b81146200315957600080fd5b50565b620031678162002c45565b81146200317357600080fd5b5056fe60a060405234801561001057600080fd5b503373ffffffffffffffffffffffffffffffffffffffff1660808173ffffffffffffffffffffffffffffffffffffffff1660601b8152505060805160601c6106e96100736000396000818160c9015281816101de01526102e101526106e96000f3fe608060405234801561001057600080fd5b50600436106100415760003560e01c806315ac72ca146100465780639623609d1461007657806399a88ec414610092575b600080fd5b610060600480360381019061005b9190610439565b6100ae565b60405161006d9190610592565b60405180910390f35b610090600480360381019061008b91906104c7565b6101c5565b005b6100ac60048036038101906100a7919061048b565b6102c8565b005b60003373ffffffffffffffffffffffffffffffffffffffff167f000000000000000000000000000000000000000000000000000000000000000073ffffffffffffffffffffffffffffffffffffffff161461013e576040517f08c379a0000000000000000000000000000000000000000000000000000000008152600401610135906105df565b60405180910390fd5b8173ffffffffffffffffffffffffffffffffffffffff16635c60da1b6040518163ffffffff1660e01b8152600401602060405180830381600087803b15801561018657600080fd5b505af115801561019a573d6000803e3d6000fd5b505050506040513d601f19601f820116820180604052508101906101be9190610462565b9050919050565b3373ffffffffffffffffffffffffffffffffffffffff167f000000000000000000000000000000000000000000000000000000000000000073ffffffffffffffffffffffffffffffffffffffff1614610253576040517f08c379a000000000000000000000000000000000000000000000000000000000815260040161024a906105df565b60405180910390fd5b8373ffffffffffffffffffffffffffffffffffffffff16634f1ef2868484846040518463ffffffff1660e01b8152600401610290939291906105ad565b600060405180830381600087803b1580156102aa57600080fd5b505af11580156102be573d6000803e3d6000fd5b5050505050505050565b3373ffffffffffffffffffffffffffffffffffffffff167f000000000000000000000000000000000000000000000000000000000000000073ffffffffffffffffffffffffffffffffffffffff1614610356576040517f08c379a000000000000000000000000000000000000000000000000000000000815260040161034d906105df565b60405180910390fd5b8173ffffffffffffffffffffffffffffffffffffffff16633659cfe6826040518263ffffffff1660e01b815260040161038f9190610592565b600060405180830381600087803b1580156103a957600080fd5b505af11580156103bd573d6000803e3d6000fd5b505050505050565b6000813590506103d48161069c565b92915050565b6000815190506103e98161069c565b92915050565b60008083601f84011261040157600080fd5b8235905067ffffffffffffffff81111561041a57600080fd5b60208301915083600182028301111561043257600080fd5b9250929050565b60006020828403121561044b57600080fd5b6000610459848285016103c5565b91505092915050565b60006020828403121561047457600080fd5b6000610482848285016103da565b91505092915050565b6000806040838503121561049e57600080fd5b60006104ac858286016103c5565b92505060206104bd858286016103c5565b9150509250929050565b600080600080606085870312156104dd57600080fd5b60006104eb878288016103c5565b94505060206104fc878288016103c5565b935050604085013567ffffffffffffffff81111561051957600080fd5b610525878288016103ef565b925092505092959194509250565b61053c81610621565b82525050565b600061054e83856105ff565b935061055b838584610653565b61056483610662565b840190509392505050565b600061057c602083610610565b915061058782610673565b602082019050919050565b60006020820190506105a76000830184610533565b92915050565b60006040820190506105c26000830186610533565b81810360208301526105d5818486610542565b9050949350505050565b600060208201905081810360008301526105f88161056f565b9050919050565b600082825260208201905092915050565b600082825260208201905092915050565b600061062c82610633565b9050919050565b600073ffffffffffffffffffffffffffffffffffffffff82169050919050565b82818337600083830152505050565b6000601f19601f8301169050919050565b7f446570656e64656e6379496e6a6563746f723a204e6f7420616e206f776e6572600082015250565b6106a581610621565b81146106b057600080fd5b5056fea2646970667358221220addac32cc20c9db39c0d726956875d8c68787b41dc34870180039153159f959364736f6c63430008040033608060405260405162001a1938038062001a198339818101604052810190620000299190620006c6565b828160017f360894a13ba1a3210667c828492db98dca3e2076cc3735a920a3ca505d382bbd60001c6200005d919062000994565b60001b7f360894a13ba1a3210667c828492db98dca3e2076cc3735a920a3ca505d382bbc60001b14620000b9577f4e487b7100000000000000000000000000000000000000000000000000000000600052600160045260246000fd5b620000cd828260006200017760201b60201c565b505060017fb53127684a568b3173ae13b9f8a6016e243e63b6e8ee1178d6a717850b5d610460001c62000101919062000994565b60001b7fb53127684a568b3173ae13b9f8a6016e243e63b6e8ee1178d6a717850b5d610360001b146200015d577f4e487b7100000000000000000000000000000000000000000000000000000000600052600160045260246000fd5b6200016e82620001ba60201b60201c565b50505062000bef565b62000188836200021860201b60201c565b600082511180620001965750805b15620001b557620001b383836200026f60201b6200034f1760201c565b505b505050565b7f7e644d79422f17c01e4894b5f4f588d331ebfa28653d42ae832dc59e38c9798f620001eb620002a560201b60201c565b82604051620001fc9291906200084c565b60405180910390a162000215816200030960201b60201c565b50565b6200022981620003fa60201b60201c565b8073ffffffffffffffffffffffffffffffffffffffff167fbc7cd75a20ee27fd9adebab32041f755214dbc6bffa90cc0225b39da2e5c2d3b60405160405180910390a250565b60606200029d8383604051806060016040528060278152602001620019f260279139620004d060201b60201c565b905092915050565b6000620002e07fb53127684a568b3173ae13b9f8a6016e243e63b6e8ee1178d6a717850b5d610360001b620005b460201b6200037c1760201c565b60000160009054906101000a900473ffffffffffffffffffffffffffffffffffffffff16905090565b600073ffffffffffffffffffffffffffffffffffffffff168173ffffffffffffffffffffffffffffffffffffffff1614156200037c576040517f08c379a000000000000000000000000000000000000000000000000000000000815260040162000373906200089d565b60405180910390fd5b80620003b67fb53127684a568b3173ae13b9f8a6016e243e63b6e8ee1178d6a717850b5d610360001b620005b460201b6200037c1760201c565b60000160006101000a81548173ffffffffffffffffffffffffffffffffffffffff021916908373ffffffffffffffffffffffffffffffffffffffff16021790555050565b6200041081620005be60201b620003861760201c565b62000452576040517f08c379a00000000000000000000000000000000000000000000000000000000081526004016200044990620008bf565b60405180910390fd5b806200048c7f360894a13ba1a3210667c828492db98dca3e2076cc3735a920a3ca505d382bbc60001b620005b460201b6200037c1760201c565b60000160006101000a81548173ffffffffffffffffffffffffffffffffffffffff021916908373ffffffffffffffffffffffffffffffffffffffff16021790555050565b6060620004e384620005be60201b60201c565b62000525576040517f08c379a00000000000000000000000000000000000000000000000000000000081526004016200051c90620008e1565b60405180910390fd5b6000808573ffffffffffffffffffffffffffffffffffffffff16856040516200054f919062000833565b600060405180830381855af49150503d80600081146200058c576040519150601f19603f3d011682016040523d82523d6000602084013e62000591565b606091505b5091509150620005a9828286620005d160201b60201c565b925050509392505050565b6000819050919050565b600080823b905060008111915050919050565b60608315620005e35782905062000636565b600083511115620005f75782518084602001fd5b816040517f08c379a00000000000000000000000000000000000000000000000000000000081526004016200062d919062000879565b60405180910390fd5b9392505050565b6000620006546200064e846200092c565b62000903565b9050828152602081018484840111156200066d57600080fd5b6200067a84828562000a0d565b509392505050565b600081519050620006938162000bd5565b92915050565b600082601f830112620006ab57600080fd5b8151620006bd8482602086016200063d565b91505092915050565b600080600060608486031215620006dc57600080fd5b6000620006ec8682870162000682565b9350506020620006ff8682870162000682565b925050604084015167ffffffffffffffff8111156200071d57600080fd5b6200072b8682870162000699565b9150509250925092565b6200074081620009cf565b82525050565b6000620007538262000962565b6200075f818562000978565b93506200077181856020860162000a0d565b80840191505092915050565b60006200078a826200096d565b62000796818562000983565b9350620007a881856020860162000a0d565b620007b38162000ad7565b840191505092915050565b6000620007cd60268362000983565b9150620007da8262000ae8565b604082019050919050565b6000620007f4602d8362000983565b9150620008018262000b37565b604082019050919050565b60006200081b60268362000983565b9150620008288262000b86565b604082019050919050565b600062000841828462000746565b915081905092915050565b600060408201905062000863600083018562000735565b62000872602083018462000735565b9392505050565b600060208201905081810360008301526200089581846200077d565b905092915050565b60006020820190508181036000830152620008b881620007be565b9050919050565b60006020820190508181036000830152620008da81620007e5565b9050919050565b60006020820190508181036000830152620008fc816200080c565b9050919050565b60006200090f62000922565b90506200091d828262000a43565b919050565b6000604051905090565b600067ffffffffffffffff8211156200094a576200094962000aa8565b5b620009558262000ad7565b9050602081019050919050565b600081519050919050565b600081519050919050565b600081905092915050565b600082825260208201905092915050565b6000620009a18262000a03565b9150620009ae8362000a03565b925082821015620009c457620009c362000a79565b5b828203905092915050565b6000620009dc82620009e3565b9050919050565b600073ffffffffffffffffffffffffffffffffffffffff82169050919050565b6000819050919050565b60005b8381101562000a2d57808201518184015260208101905062000a10565b8381111562000a3d576000848401525b50505050565b62000a4e8262000ad7565b810181811067ffffffffffffffff8211171562000a705762000a6f62000aa8565b5b80604052505050565b7f4e487b7100000000000000000000000000000000000000000000000000000000600052601160045260246000fd5b7f4e487b7100000000000000000000000000000000000000000000000000000000600052604160045260246000fd5b6000601f19601f8301169050919050565b7f455243313936373a206e65772061646d696e20697320746865207a65726f206160008201527f6464726573730000000000000000000000000000000000000000000000000000602082015250565b7f455243313936373a206e657720696d706c656d656e746174696f6e206973206e60008201527f6f74206120636f6e747261637400000000000000000000000000000000000000602082015250565b7f416464726573733a2064656c65676174652063616c6c20746f206e6f6e2d636f60008201527f6e74726163740000000000000000000000000000000000000000000000000000602082015250565b62000be081620009cf565b811462000bec57600080fd5b50565b610df38062000bff6000396000f3fe60806040526004361061004e5760003560e01c80633659cfe6146100675780634f1ef286146100905780635c60da1b146100ac5780638f283970146100d7578063f851a440146101005761005d565b3661005d5761005b61012b565b005b61006561012b565b005b34801561007357600080fd5b5061008e600480360381019061008991906108f2565b610145565b005b6100aa60048036038101906100a5919061091b565b6101ac565b005b3480156100b857600080fd5b506100c161024a565b6040516100ce9190610a8f565b60405180910390f35b3480156100e357600080fd5b506100fe60048036038101906100f991906108f2565b6102a2565b005b34801561010c57600080fd5b506101156102f7565b6040516101229190610a8f565b60405180910390f35b610133610399565b61014361013e610419565b610428565b565b61014d61044e565b73ffffffffffffffffffffffffffffffffffffffff163373ffffffffffffffffffffffffffffffffffffffff1614156101a05761019b816040518060200160405280600081525060006104a5565b6101a9565b6101a861012b565b5b50565b6101b461044e565b73ffffffffffffffffffffffffffffffffffffffff163373ffffffffffffffffffffffffffffffffffffffff16141561023c576102378383838080601f016020809104026020016040519081016040528093929190818152602001838380828437600081840152601f19601f8201169050808301925050505050505060016104a5565b610245565b61024461012b565b5b505050565b600061025461044e565b73ffffffffffffffffffffffffffffffffffffffff163373ffffffffffffffffffffffffffffffffffffffff1614156102965761028f610419565b905061029f565b61029e61012b565b5b90565b6102aa61044e565b73ffffffffffffffffffffffffffffffffffffffff163373ffffffffffffffffffffffffffffffffffffffff1614156102eb576102e6816104d1565b6102f4565b6102f361012b565b5b50565b600061030161044e565b73ffffffffffffffffffffffffffffffffffffffff163373ffffffffffffffffffffffffffffffffffffffff1614156103435761033c61044e565b905061034c565b61034b61012b565b5b90565b60606103748383604051806060016040528060278152602001610d976027913961051d565b905092915050565b6000819050919050565b600080823b905060008111915050919050565b6103a161044e565b73ffffffffffffffffffffffffffffffffffffffff163373ffffffffffffffffffffffffffffffffffffffff16141561040f576040517f08c379a000000000000000000000000000000000000000000000000000000000815260040161040690610b55565b60405180910390fd5b6104176105ea565b565b60006104236105ec565b905090565b3660008037600080366000845af43d6000803e8060008114610449573d6000f35b3d6000fd5b600061047c7fb53127684a568b3173ae13b9f8a6016e243e63b6e8ee1178d6a717850b5d610360001b61037c565b60000160009054906101000a900473ffffffffffffffffffffffffffffffffffffffff16905090565b6104ae83610643565b6000825111806104bb5750805b156104cc576104ca838361034f565b505b505050565b7f7e644d79422f17c01e4894b5f4f588d331ebfa28653d42ae832dc59e38c9798f6104fa61044e565b82604051610509929190610aaa565b60405180910390a161051a81610692565b50565b606061052884610386565b610567576040517f08c379a000000000000000000000000000000000000000000000000000000000815260040161055e90610b35565b60405180910390fd5b6000808573ffffffffffffffffffffffffffffffffffffffff168560405161058f9190610a78565b600060405180830381855af49150503d80600081146105ca576040519150601f19603f3d011682016040523d82523d6000602084013e6105cf565b606091505b50915091506105df828286610773565b925050509392505050565b565b600061061a7f360894a13ba1a3210667c828492db98dca3e2076cc3735a920a3ca505d382bbc60001b61037c565b60000160009054906101000a900473ffffffffffffffffffffffffffffffffffffffff16905090565b61064c816107da565b8073ffffffffffffffffffffffffffffffffffffffff167fbc7cd75a20ee27fd9adebab32041f755214dbc6bffa90cc0225b39da2e5c2d3b60405160405180910390a250565b600073ffffffffffffffffffffffffffffffffffffffff168173ffffffffffffffffffffffffffffffffffffffff161415610702576040517f08c379a00000000000000000000000000000000000000000000000000000000081526004016106f990610af5565b60405180910390fd5b8061072f7fb53127684a568b3173ae13b9f8a6016e243e63b6e8ee1178d6a717850b5d610360001b61037c565b60000160006101000a81548173ffffffffffffffffffffffffffffffffffffffff021916908373ffffffffffffffffffffffffffffffffffffffff16021790555050565b60608315610783578290506107d3565b6000835111156107965782518084602001fd5b816040517f08c379a00000000000000000000000000000000000000000000000000000000081526004016107ca9190610ad3565b60405180910390fd5b9392505050565b6107e381610386565b610822576040517f08c379a000000000000000000000000000000000000000000000000000000000815260040161081990610b15565b60405180910390fd5b8061084f7f360894a13ba1a3210667c828492db98dca3e2076cc3735a920a3ca505d382bbc60001b61037c565b60000160006101000a81548173ffffffffffffffffffffffffffffffffffffffff021916908373ffffffffffffffffffffffffffffffffffffffff16021790555050565b6000813590506108a281610d7f565b92915050565b60008083601f8401126108ba57600080fd5b8235905067ffffffffffffffff8111156108d357600080fd5b6020830191508360018202830111156108eb57600080fd5b9250929050565b60006020828403121561090457600080fd5b600061091284828501610893565b91505092915050565b60008060006040848603121561093057600080fd5b600061093e86828701610893565b935050602084013567ffffffffffffffff81111561095b57600080fd5b610967868287016108a8565b92509250509250925092565b61097c81610ba7565b82525050565b600061098d82610b75565b6109978185610b8b565b93506109a7818560208601610bd9565b80840191505092915050565b60006109be82610b80565b6109c88185610b96565b93506109d8818560208601610bd9565b6109e181610c0c565b840191505092915050565b60006109f9602683610b96565b9150610a0482610c1d565b604082019050919050565b6000610a1c602d83610b96565b9150610a2782610c6c565b604082019050919050565b6000610a3f602683610b96565b9150610a4a82610cbb565b604082019050919050565b6000610a62604283610b96565b9150610a6d82610d0a565b606082019050919050565b6000610a848284610982565b915081905092915050565b6000602082019050610aa46000830184610973565b92915050565b6000604082019050610abf6000830185610973565b610acc6020830184610973565b9392505050565b60006020820190508181036000830152610aed81846109b3565b905092915050565b60006020820190508181036000830152610b0e816109ec565b9050919050565b60006020820190508181036000830152610b2e81610a0f565b9050919050565b60006020820190508181036000830152610b4e81610a32565b9050919050565b60006020820190508181036000830152610b6e81610a55565b9050919050565b600081519050919050565b600081519050919050565b600081905092915050565b600082825260208201905092915050565b6000610bb282610bb9565b9050919050565b600073ffffffffffffffffffffffffffffffffffffffff82169050919050565b60005b83811015610bf7578082015181840152602081019050610bdc565b83811115610c06576000848401525b50505050565b6000601f19601f8301169050919050565b7f455243313936373a206e65772061646d696e20697320746865207a65726f206160008201527f6464726573730000000000000000000000000000000000000000000000000000602082015250565b7f455243313936373a206e657720696d706c656d656e746174696f6e206973206e60008201527f6f74206120636f6e747261637400000000000000000000000000000000000000602082015250565b7f416464726573733a2064656c65676174652063616c6c20746f206e6f6e2d636f60008201527f6e74726163740000000000000000000000000000000000000000000000000000602082015250565b7f5472616e73706172656e745570677261646561626c6550726f78793a2061646d60008201527f696e2063616e6e6f742066616c6c6261636b20746f2070726f7879207461726760208201527f6574000000000000000000000000000000000000000000000000000000000000604082015250565b610d8881610ba7565b8114610d9357600080fd5b5056fe416464726573733a206c6f772d6c6576656c2064656c65676174652063616c6c206661696c6564a264697066735822122037351d72bf9d808ab53097f505794f8a541e6cb4708261f7336f4f013d6ecebe64736f6c63430008040033416464726573733a206c6f772d6c6576656c2064656c65676174652063616c6c206661696c6564a26469706673582212203de677783d6ae171ebfd8fbad0478fe75ceff195ca3775803bfc4747e85a81b564736f6c63430008040033",
  "linkReferences": {},
  "deployedLinkReferences": {}
}