{
  "_format": "hh-sol-artifact-1",
  "contractName": "StorageV2",
  "sourceName": "contracts/StorageV2.sol",
  "abi": [
    {
      "anonymous": false,
      "inputs": [
        {
          "indexed": false,
          "internalType": "address",
          "name": "previousAdmin",
          "type": "address"
        },
        {
          "indexed": false,
          "internalType": "address",
          "name": "newAdmin",
          "type": "address"
        }
      ],
      "name": "AdminChanged",
      "type": "event"
    },
    {
      "anonymous": false,
      "inputs": [
        {
          "indexed": true,
          "internalType": "address",
          "name": "beacon",
          "type": "address"
        }
      ],
      "name": "BeaconUpgraded",
      "type": "event"
    },
    {
      "anonymous": false,
      "inputs": [
        {
          "indexed": true,
          "internalType": "address",
          "name": "account",
          "type": "address"
        },
        {
          "indexed": false,
          "internalType": "string",
          "name": "data1",
          "type": "string"
        }
      ],
      "name": "Data1Set",
      "type": "event"
    },
    {
      "anonymous": false,
      "inputs": [
        {
          "indexed": true,
          "internalType": "address",
          "name": "account",
          "type": "address"
        },
        {
          "indexed": false,
          "internalType": "string",
          "name": "data2",
          "type": "string"
        }
      ],
      "name": "Data2Set",
      "type": "event"
    },
    {
      "anonymous": false,
      "inputs": [
        {
          "indexed": true,
          "internalType": "address",
          "name": "previousOwner",
          "type": "address"
        },
        {
          "indexed": true,
          "internalType": "address",
          "name": "newOwner",
          "type": "address"
        }
      ],
      "name": "OwnershipTransferred",
      "type": "event"
    },
    {
      "anonymous": false,
      "inputs": [
        {
          "indexed": true,
          "internalType": "address",
          "name": "implementation",
          "type": "address"
        }
      ],
      "name": "Upgraded",
      "type": "event"
    },
    {
      "inputs": [],
      "name": "getData1",
      "outputs": [
        {
          "internalType": "string",
          "name": "",
          "type": "string"
        }
      ],
      "stateMutability": "view",
      "type": "function"
    },
    {
      "inputs": [],
      "name": "getData2",
      "outputs": [
        {
          "internalType": "string",
          "name": "",
          "type": "string"
        }
      ],
      "stateMutability": "view",
      "type": "function"
    },
    {
      "inputs": [],
      "name": "initialize",
      "outputs": [],
      "stateMutability": "nonpayable",
      "type": "function"
    },
    {
      "inputs": [],
      "name": "owner",
      "outputs": [
        {
          "internalType": "address",
          "name": "",
          "type": "address"
        }
      ],
      "stateMutability": "view",
      "type": "function"
    },
    {
      "inputs": [],
      "name": "renounceOwnership",
      "outputs": [],
      "stateMutability": "nonpayable",
      "type": "function"
    },
    {
      "inputs": [
        {
          "internalType": "string",
          "name": "data1_",
          "type": "string"
        }
      ],
      "name": "setData1",
      "outputs": [],
      "stateMutability": "nonpayable",
      "type": "function"
    },
    {
      "inputs": [
        {
          "internalType": "string",
          "name": "data2_",
          "type": "string"
        }
      ],
      "name": "setData2",
      "outputs": [],
      "stateMutability": "nonpayable",
      "type": "function"
    },
    {
      "inputs": [
        {
          "internalType": "address",
          "name": "newOwner",
          "type": "address"
        }
      ],
      "name": "transferOwnership",
      "outputs": [],
      "stateMutability": "nonpayable",
      "type": "function"
    },
    {
      "inputs": [
        {
          "internalType": "address",
          "name": "newImplementation",
          "type": "address"
        }
      ],
      "name": "upgradeTo",
      "outputs": [],
      "stateMutability": "nonpayable",
      "type": "function"
    },
    {
      "inputs": [
        {
          "internalType": "address",
          "name": "newImplementation",
          "type": "address"
        },
        {
          "internalType": "bytes",
          "name": "data",
          "type": "bytes"
        }
      ],
      "name": "upgradeToAndCall",
      "outputs": [],
      "stateMutability": "payable",
      "type": "function"
    },
    {
      "inputs": [],
      "name": "version",
      "outputs": [
        {
          "internalType": "string",
          "name": "",
          "type": "string"
        }
      ],
      "stateMutability": "pure",
      "type": "function"
    }
  ],
  "bytecode": "0x60a06040523073ffffffffffffffffffffffffffffffffffffffff1660809073ffffffffffffffffffffffffffffffffffffffff1660601b81525034801561004657600080fd5b5060805160601c611b8361007a600039600081816102a5015281816103340152818161045401526104e30152611b836000f3fe60806040526004361061009c5760003560e01c8063715018a611610064578063715018a6146101635780638129fc1c1461017a5780638da5cb5b146101915780639944cc71146101bc578063a898fd70146101e7578063f2fde38b146102125761009c565b80630745f9d5146100a15780633659cfe6146100ca5780634f1ef286146100f357806354fd4d501461010f5780636fab73901461013a575b600080fd5b3480156100ad57600080fd5b506100c860048036038101906100c39190611306565b61023b565b005b3480156100d657600080fd5b506100f160048036038101906100ec9190611289565b6102a3565b005b61010d600480360381019061010891906112b2565b610452565b005b34801561011b57600080fd5b5061012461058f565b604051610131919061152d565b60405180910390f35b34801561014657600080fd5b50610161600480360381019061015c9190611306565b6105cc565b005b34801561016f57600080fd5b50610178610634565b005b34801561018657600080fd5b5061018f6106bc565b005b34801561019d57600080fd5b506101a66107a8565b6040516101b39190611512565b60405180910390f35b3480156101c857600080fd5b506101d16107d2565b6040516101de919061152d565b60405180910390f35b3480156101f357600080fd5b506101fc610864565b604051610209919061152d565b60405180910390f35b34801561021e57600080fd5b5061023960048036038101906102349190611289565b6108f6565b005b8060c99080519060200190610251929190611101565b503373ffffffffffffffffffffffffffffffffffffffff167fb449e04aabb28b2a86020d65554ca6ecfe8e3e06f6907a794064520efbdab7e282604051610298919061152d565b60405180910390a250565b7f000000000000000000000000000000000000000000000000000000000000000073ffffffffffffffffffffffffffffffffffffffff163073ffffffffffffffffffffffffffffffffffffffff161415610332576040517f08c379a00000000000000000000000000000000000000000000000000000000081526004016103299061158f565b60405180910390fd5b7f000000000000000000000000000000000000000000000000000000000000000073ffffffffffffffffffffffffffffffffffffffff166103716109ee565b73ffffffffffffffffffffffffffffffffffffffff16146103c7576040517f08c379a00000000000000000000000000000000000000000000000000000000081526004016103be906115af565b60405180910390fd5b6103d081610a45565b61044f81600067ffffffffffffffff811115610415577f4e487b7100000000000000000000000000000000000000000000000000000000600052604160045260246000fd5b6040519080825280601f01601f1916602001820160405280156104475781602001600182028036833780820191505090505b506000610ac4565b50565b7f000000000000000000000000000000000000000000000000000000000000000073ffffffffffffffffffffffffffffffffffffffff163073ffffffffffffffffffffffffffffffffffffffff1614156104e1576040517f08c379a00000000000000000000000000000000000000000000000000000000081526004016104d89061158f565b60405180910390fd5b7f000000000000000000000000000000000000000000000000000000000000000073ffffffffffffffffffffffffffffffffffffffff166105206109ee565b73ffffffffffffffffffffffffffffffffffffffff1614610576576040517f08c379a000000000000000000000000000000000000000000000000000000000815260040161056d906115af565b60405180910390fd5b61057f82610a45565b61058b82826001610ac4565b5050565b60606040518060400160405280600481526020017f76322e3000000000000000000000000000000000000000000000000000000000815250905090565b8060ca90805190602001906105e2929190611101565b503373ffffffffffffffffffffffffffffffffffffffff167fe1f7485848a21c1149782ff79103d69f9b68cb9f05a59fed8c40a7a682408c1182604051610629919061152d565b60405180910390a250565b61063c610c95565b73ffffffffffffffffffffffffffffffffffffffff1661065a6107a8565b73ffffffffffffffffffffffffffffffffffffffff16146106b0576040517f08c379a00000000000000000000000000000000000000000000000000000000081526004016106a79061160f565b60405180910390fd5b6106ba6000610c9d565b565b600060019054906101000a900460ff166106e45760008054906101000a900460ff16156106ed565b6106ec610d63565b5b61072c576040517f08c379a0000000000000000000000000000000000000000000000000000000008152600401610723906115cf565b60405180910390fd5b60008060019054906101000a900460ff16159050801561077c576001600060016101000a81548160ff02191690831515021790555060016000806101000a81548160ff0219169083151502179055505b610784610d74565b80156107a55760008060016101000a81548160ff0219169083151502179055505b50565b6000603360009054906101000a900473ffffffffffffffffffffffffffffffffffffffff16905090565b606060c980546107e19061179c565b80601f016020809104026020016040519081016040528092919081815260200182805461080d9061179c565b801561085a5780601f1061082f5761010080835404028352916020019161085a565b820191906000526020600020905b81548152906001019060200180831161083d57829003601f168201915b5050505050905090565b606060ca80546108739061179c565b80601f016020809104026020016040519081016040528092919081815260200182805461089f9061179c565b80156108ec5780601f106108c1576101008083540402835291602001916108ec565b820191906000526020600020905b8154815290600101906020018083116108cf57829003601f168201915b5050505050905090565b6108fe610c95565b73ffffffffffffffffffffffffffffffffffffffff1661091c6107a8565b73ffffffffffffffffffffffffffffffffffffffff1614610972576040517f08c379a00000000000000000000000000000000000000000000000000000000081526004016109699061160f565b60405180910390fd5b600073ffffffffffffffffffffffffffffffffffffffff168173ffffffffffffffffffffffffffffffffffffffff1614156109e2576040517f08c379a00000000000000000000000000000000000000000000000000000000081526004016109d99061156f565b60405180910390fd5b6109eb81610c9d565b50565b6000610a1c7f360894a13ba1a3210667c828492db98dca3e2076cc3735a920a3ca505d382bbc60001b610dd5565b60000160009054906101000a900473ffffffffffffffffffffffffffffffffffffffff16905090565b610a4d610c95565b73ffffffffffffffffffffffffffffffffffffffff16610a6b6107a8565b73ffffffffffffffffffffffffffffffffffffffff1614610ac1576040517f08c379a0000000000000000000000000000000000000000000000000000000008152600401610ab89061160f565b60405180910390fd5b50565b6000610ace6109ee565b9050610ad984610ddf565b600083511180610ae65750815b15610af757610af58484610e98565b505b6000610b257f4910fdfa16fed3260ed0e7147f7cc6da11a60208b5b9406d12a635614ffd914360001b610f7c565b90508060000160009054906101000a900460ff16610c8e5760018160000160006101000a81548160ff021916908315150217905550610bf18583604051602401610b6f9190611512565b6040516020818303038152906040527f3659cfe6000000000000000000000000000000000000000000000000000000007bffffffffffffffffffffffffffffffffffffffffffffffffffffffff19166020820180517bffffffffffffffffffffffffffffffffffffffffffffffffffffffff8381831617835250505050610e98565b5060008160000160006101000a81548160ff021916908315150217905550610c176109ee565b73ffffffffffffffffffffffffffffffffffffffff168273ffffffffffffffffffffffffffffffffffffffff1614610c84576040517f08c379a0000000000000000000000000000000000000000000000000000000008152600401610c7b9061154f565b60405180910390fd5b610c8d85610f86565b5b5050505050565b600033905090565b6000603360009054906101000a900473ffffffffffffffffffffffffffffffffffffffff16905081603360006101000a81548173ffffffffffffffffffffffffffffffffffffffff021916908373ffffffffffffffffffffffffffffffffffffffff1602179055508173ffffffffffffffffffffffffffffffffffffffff168173ffffffffffffffffffffffffffffffffffffffff167f8be0079c531659141344cd1fd0a4f28419497f9722a3daafe3b4186f6b6457e060405160405180910390a35050565b6000610d6e30610fd5565b15905090565b600060019054906101000a900460ff16610dc3576040517f08c379a0000000000000000000000000000000000000000000000000000000008152600401610dba9061164f565b60405180910390fd5b610dcb610fe8565b610dd3611039565b565b6000819050919050565b610de881610fd5565b610e27576040517f08c379a0000000000000000000000000000000000000000000000000000000008152600401610e1e906115ef565b60405180910390fd5b80610e547f360894a13ba1a3210667c828492db98dca3e2076cc3735a920a3ca505d382bbc60001b610dd5565b60000160006101000a81548173ffffffffffffffffffffffffffffffffffffffff021916908373ffffffffffffffffffffffffffffffffffffffff16021790555050565b6060610ea383610fd5565b610ee2576040517f08c379a0000000000000000000000000000000000000000000000000000000008152600401610ed99061162f565b60405180910390fd5b6000808473ffffffffffffffffffffffffffffffffffffffff1684604051610f0a91906114fb565b600060405180830381855af49150503d8060008114610f45576040519150601f19603f3d011682016040523d82523d6000602084013e610f4a565b606091505b5091509150610f728282604051806060016040528060278152602001611b276027913961109a565b9250505092915050565b6000819050919050565b610f8f81610ddf565b8073ffffffffffffffffffffffffffffffffffffffff167fbc7cd75a20ee27fd9adebab32041f755214dbc6bffa90cc0225b39da2e5c2d3b60405160405180910390a250565b600080823b905060008111915050919050565b600060019054906101000a900460ff16611037576040517f08c379a000000000000000000000000000000000000000000000000000000000815260040161102e9061164f565b60405180910390fd5b565b600060019054906101000a900460ff16611088576040517f08c379a000000000000000000000000000000000000000000000000000000000815260040161107f9061164f565b60405180910390fd5b611098611093610c95565b610c9d565b565b606083156110aa578290506110fa565b6000835111156110bd5782518084602001fd5b816040517f08c379a00000000000000000000000000000000000000000000000000000000081526004016110f1919061152d565b60405180910390fd5b9392505050565b82805461110d9061179c565b90600052602060002090601f01602090048101928261112f5760008555611176565b82601f1061114857805160ff1916838001178555611176565b82800160010185558215611176579182015b8281111561117557825182559160200191906001019061115a565b5b5090506111839190611187565b5090565b5b808211156111a0576000816000905550600101611188565b5090565b60006111b76111b284611694565b61166f565b9050828152602081018484840111156111cf57600080fd5b6111da84828561175a565b509392505050565b60006111f56111f0846116c5565b61166f565b90508281526020810184848401111561120d57600080fd5b61121884828561175a565b509392505050565b60008135905061122f81611b0f565b92915050565b600082601f83011261124657600080fd5b81356112568482602086016111a4565b91505092915050565b600082601f83011261127057600080fd5b81356112808482602086016111e2565b91505092915050565b60006020828403121561129b57600080fd5b60006112a984828501611220565b91505092915050565b600080604083850312156112c557600080fd5b60006112d385828601611220565b925050602083013567ffffffffffffffff8111156112f057600080fd5b6112fc85828601611235565b9150509250929050565b60006020828403121561131857600080fd5b600082013567ffffffffffffffff81111561133257600080fd5b61133e8482850161125f565b91505092915050565b61135081611728565b82525050565b6000611361826116f6565b61136b818561170c565b935061137b818560208601611769565b80840191505092915050565b600061139282611701565b61139c8185611717565b93506113ac818560208601611769565b6113b58161185d565b840191505092915050565b60006113cd602f83611717565b91506113d88261186e565b604082019050919050565b60006113f0602683611717565b91506113fb826118bd565b604082019050919050565b6000611413602c83611717565b915061141e8261190c565b604082019050919050565b6000611436602c83611717565b91506114418261195b565b604082019050919050565b6000611459602e83611717565b9150611464826119aa565b604082019050919050565b600061147c602d83611717565b9150611487826119f9565b604082019050919050565b600061149f602083611717565b91506114aa82611a48565b602082019050919050565b60006114c2602683611717565b91506114cd82611a71565b604082019050919050565b60006114e5602b83611717565b91506114f082611ac0565b604082019050919050565b60006115078284611356565b915081905092915050565b60006020820190506115276000830184611347565b92915050565b600060208201905081810360008301526115478184611387565b905092915050565b60006020820190508181036000830152611568816113c0565b9050919050565b60006020820190508181036000830152611588816113e3565b9050919050565b600060208201905081810360008301526115a881611406565b9050919050565b600060208201905081810360008301526115c881611429565b9050919050565b600060208201905081810360008301526115e88161144c565b9050919050565b600060208201905081810360008301526116088161146f565b9050919050565b6000602082019050818103600083015261162881611492565b9050919050565b60006020820190508181036000830152611648816114b5565b9050919050565b60006020820190508181036000830152611668816114d8565b9050919050565b600061167961168a565b905061168582826117ce565b919050565b6000604051905090565b600067ffffffffffffffff8211156116af576116ae61182e565b5b6116b88261185d565b9050602081019050919050565b600067ffffffffffffffff8211156116e0576116df61182e565b5b6116e98261185d565b9050602081019050919050565b600081519050919050565b600081519050919050565b600081905092915050565b600082825260208201905092915050565b60006117338261173a565b9050919050565b600073ffffffffffffffffffffffffffffffffffffffff82169050919050565b82818337600083830152505050565b60005b8381101561178757808201518184015260208101905061176c565b83811115611796576000848401525b50505050565b600060028204905060018216806117b457607f821691505b602082108114156117c8576117c76117ff565b5b50919050565b6117d78261185d565b810181811067ffffffffffffffff821117156117f6576117f561182e565b5b80604052505050565b7f4e487b7100000000000000000000000000000000000000000000000000000000600052602260045260246000fd5b7f4e487b7100000000000000000000000000000000000000000000000000000000600052604160045260246000fd5b6000601f19601f8301169050919050565b7f45524331393637557067726164653a207570677261646520627265616b73206660008201527f7572746865722075706772616465730000000000000000000000000000000000602082015250565b7f4f776e61626c653a206e6577206f776e657220697320746865207a65726f206160008201527f6464726573730000000000000000000000000000000000000000000000000000602082015250565b7f46756e6374696f6e206d7573742062652063616c6c6564207468726f7567682060008201527f64656c656761746563616c6c0000000000000000000000000000000000000000602082015250565b7f46756e6374696f6e206d7573742062652063616c6c6564207468726f7567682060008201527f6163746976652070726f78790000000000000000000000000000000000000000602082015250565b7f496e697469616c697a61626c653a20636f6e747261637420697320616c72656160008201527f647920696e697469616c697a6564000000000000000000000000000000000000602082015250565b7f455243313936373a206e657720696d706c656d656e746174696f6e206973206e60008201527f6f74206120636f6e747261637400000000000000000000000000000000000000602082015250565b7f4f776e61626c653a2063616c6c6572206973206e6f7420746865206f776e6572600082015250565b7f416464726573733a2064656c65676174652063616c6c20746f206e6f6e2d636f60008201527f6e74726163740000000000000000000000000000000000000000000000000000602082015250565b7f496e697469616c697a61626c653a20636f6e7472616374206973206e6f74206960008201527f6e697469616c697a696e67000000000000000000000000000000000000000000602082015250565b611b1881611728565b8114611b2357600080fd5b5056fe416464726573733a206c6f772d6c6576656c2064656c65676174652063616c6c206661696c6564a26469706673582212207626e0e596285280439e4e0213d066afc308559e4d1b04c7a4fd5285f985552d64736f6c63430008040033",
  "linkReferences": {},
  "deployedLinkReferences": {}
}