{
  "_format": "hh-sol-artifact-1",
  "contractName": "StatusV1",
  "sourceName": "contracts/StatusV1.sol",
  "abi": [
    {
      "anonymous": false,
      "inputs": [
        {
          "indexed": true,
          "internalType": "address",
          "name": "account",
          "type": "address"
        },
        {
          "indexed": false,
          "internalType": "string",
          "name": "data1",
          "type": "string"
        }
      ],
      "name": "DataSet",
      "type": "event"
    },
    {
      "anonymous": false,
      "inputs": [
        {
          "indexed": true,
          "internalType": "address",
          "name": "previousOwner",
          "type": "address"
        },
        {
          "indexed": true,
          "internalType": "address",
          "name": "newOwner",
          "type": "address"
        }
      ],
      "name": "OwnershipTransferred",
      "type": "event"
    },
    {
      "inputs": [],
      "name": "getData",
      "outputs": [
        {
          "internalType": "string",
          "name": "",
          "type": "string"
        }
      ],
      "stateMutability": "view",
      "type": "function"
    },
    {
      "inputs": [
        {
          "internalType": "string",
          "name": "data_",
          "type": "string"
        }
      ],
      "name": "initStatus",
      "outputs": [],
      "stateMutability": "nonpayable",
      "type": "function"
    },
    {
      "inputs": [],
      "name": "injector",
      "outputs": [
        {
          "internalType": "address",
          "name": "_injector",
          "type": "address"
        }
      ],
      "stateMutability": "view",
      "type": "function"
    },
    {
      "inputs": [],
      "name": "owner",
      "outputs": [
        {
          "internalType": "address",
          "name": "",
          "type": "address"
        }
      ],
      "stateMutability": "view",
      "type": "function"
    },
    {
      "inputs": [],
      "name": "renounceOwnership",
      "outputs": [],
      "stateMutability": "nonpayable",
      "type": "function"
    },
    {
      "inputs": [
        {
          "internalType": "string",
          "name": "data_",
          "type": "string"
        }
      ],
      "name": "setData",
      "outputs": [],
      "stateMutability": "nonpayable",
      "type": "function"
    },
    {
      "inputs": [
        {
          "internalType": "contract IRegistry",
          "name": "_registry",
          "type": "address"
        }
      ],
      "name": "setDependencies",
      "outputs": [],
      "stateMutability": "nonpayable",
      "type": "function"
    },
    {
      "inputs": [
        {
          "internalType": "address",
          "name": "_injector",
          "type": "address"
        }
      ],
      "name": "setInjector",
      "outputs": [],
      "stateMutability": "nonpayable",
      "type": "function"
    },
    {
      "inputs": [
        {
          "internalType": "address",
          "name": "newOwner",
          "type": "address"
        }
      ],
      "name": "transferOwnership",
      "outputs": [],
      "stateMutability": "nonpayable",
      "type": "function"
    }
  ],
  "bytecode": "0x608060405234801561001057600080fd5b50610e58806100206000396000f3fe608060405234801561001057600080fd5b50600436106100935760003560e01c8063715018a611610066578063715018a61461010c5780638389cb18146101165780638cb941cc146101325780638da5cb5b1461014e578063f2fde38b1461016c57610093565b80633bc5de301461009857806346171610146100b657806347064d6a146100d4578063620a5af1146100f0575b600080fd5b6100a0610188565b6040516100ad9190610a98565b60405180910390f35b6100be61021a565b6040516100cb9190610a7d565b60405180910390f35b6100ee60048036038101906100e99190610968565b61024b565b005b61010a60048036038101906101059190610968565b6102b3565b005b6101146103af565b005b610130600480360381019061012b919061093f565b610437565b005b61014c60048036038101906101479190610916565b6104ec565b005b6101566105cd565b6040516101639190610a7d565b60405180910390f35b61018660048036038101906101819190610916565b6105f7565b005b60606065805461019790610c32565b80601f01602080910402602001604051908101604052809291908181526020018280546101c390610c32565b80156102105780601f106101e557610100808354040283529160200191610210565b820191906000526020600020905b8154815290600101906020018083116101f357829003601f168201915b5050505050905090565b6000807fd6b8f2e074594ceb05d47c27386969754b6ad0c15e5eb8f691399cd0be980e7660001b9050805491505090565b80606590805190602001906102619291906107e1565b503373ffffffffffffffffffffffffffffffffffffffff167f150183e5703e84d2fdb9942416f6b375833b0e47dd0c29ae9d2712f04aa66839826040516102a89190610a98565b60405180910390a250565b600060019054906101000a900460ff166102db5760008054906101000a900460ff16156102e4565b6102e36106ef565b5b610323576040517f08c379a000000000000000000000000000000000000000000000000000000000815260040161031a90610afa565b60405180910390fd5b60008060019054906101000a900460ff161590508015610373576001600060016101000a81548160ff02191690831515021790555060016000806101000a81548160ff0219169083151502179055505b81606590805190602001906103899291906107e1565b5080156103ab5760008060016101000a81548160ff0219169083151502179055505b5050565b6103b7610700565b73ffffffffffffffffffffffffffffffffffffffff166103d56105cd565b73ffffffffffffffffffffffffffffffffffffffff161461042b576040517f08c379a000000000000000000000000000000000000000000000000000000000815260040161042290610b1a565b60405180910390fd5b6104356000610708565b565b600061044161021a565b9050600073ffffffffffffffffffffffffffffffffffffffff168173ffffffffffffffffffffffffffffffffffffffff1614806104a957503373ffffffffffffffffffffffffffffffffffffffff168173ffffffffffffffffffffffffffffffffffffffff16145b6104e8576040517f08c379a00000000000000000000000000000000000000000000000000000000081526004016104df90610ada565b60405180910390fd5b5050565b60006104f661021a565b9050600073ffffffffffffffffffffffffffffffffffffffff168173ffffffffffffffffffffffffffffffffffffffff16148061055e57503373ffffffffffffffffffffffffffffffffffffffff168173ffffffffffffffffffffffffffffffffffffffff16145b61059d576040517f08c379a000000000000000000000000000000000000000000000000000000000815260040161059490610ada565b60405180910390fd5b60007fd6b8f2e074594ceb05d47c27386969754b6ad0c15e5eb8f691399cd0be980e7660001b9050828155505050565b6000603360009054906101000a900473ffffffffffffffffffffffffffffffffffffffff16905090565b6105ff610700565b73ffffffffffffffffffffffffffffffffffffffff1661061d6105cd565b73ffffffffffffffffffffffffffffffffffffffff1614610673576040517f08c379a000000000000000000000000000000000000000000000000000000000815260040161066a90610b1a565b60405180910390fd5b600073ffffffffffffffffffffffffffffffffffffffff168173ffffffffffffffffffffffffffffffffffffffff1614156106e3576040517f08c379a00000000000000000000000000000000000000000000000000000000081526004016106da90610aba565b60405180910390fd5b6106ec81610708565b50565b60006106fa306107ce565b15905090565b600033905090565b6000603360009054906101000a900473ffffffffffffffffffffffffffffffffffffffff16905081603360006101000a81548173ffffffffffffffffffffffffffffffffffffffff021916908373ffffffffffffffffffffffffffffffffffffffff1602179055508173ffffffffffffffffffffffffffffffffffffffff168173ffffffffffffffffffffffffffffffffffffffff167f8be0079c531659141344cd1fd0a4f28419497f9722a3daafe3b4186f6b6457e060405160405180910390a35050565b600080823b905060008111915050919050565b8280546107ed90610c32565b90600052602060002090601f01602090048101928261080f5760008555610856565b82601f1061082857805160ff1916838001178555610856565b82800160010185558215610856579182015b8281111561085557825182559160200191906001019061083a565b5b5090506108639190610867565b5090565b5b80821115610880576000816000905550600101610868565b5090565b600061089761089284610b5f565b610b3a565b9050828152602081018484840111156108af57600080fd5b6108ba848285610bf0565b509392505050565b6000813590506108d181610df4565b92915050565b6000813590506108e681610e0b565b92915050565b600082601f8301126108fd57600080fd5b813561090d848260208601610884565b91505092915050565b60006020828403121561092857600080fd5b6000610936848285016108c2565b91505092915050565b60006020828403121561095157600080fd5b600061095f848285016108d7565b91505092915050565b60006020828403121561097a57600080fd5b600082013567ffffffffffffffff81111561099457600080fd5b6109a0848285016108ec565b91505092915050565b6109b281610bac565b82525050565b60006109c382610b90565b6109cd8185610b9b565b93506109dd818560208601610bff565b6109e681610cf3565b840191505092915050565b60006109fe602683610b9b565b9150610a0982610d04565b604082019050919050565b6000610a21601a83610b9b565b9150610a2c82610d53565b602082019050919050565b6000610a44602e83610b9b565b9150610a4f82610d7c565b604082019050919050565b6000610a67602083610b9b565b9150610a7282610dcb565b602082019050919050565b6000602082019050610a9260008301846109a9565b92915050565b60006020820190508181036000830152610ab281846109b8565b905092915050565b60006020820190508181036000830152610ad3816109f1565b9050919050565b60006020820190508181036000830152610af381610a14565b9050919050565b60006020820190508181036000830152610b1381610a37565b9050919050565b60006020820190508181036000830152610b3381610a5a565b9050919050565b6000610b44610b55565b9050610b508282610c64565b919050565b6000604051905090565b600067ffffffffffffffff821115610b7a57610b79610cc4565b5b610b8382610cf3565b9050602081019050919050565b600081519050919050565b600082825260208201905092915050565b6000610bb782610bd0565b9050919050565b6000610bc982610bac565b9050919050565b600073ffffffffffffffffffffffffffffffffffffffff82169050919050565b82818337600083830152505050565b60005b83811015610c1d578082015181840152602081019050610c02565b83811115610c2c576000848401525b50505050565b60006002820490506001821680610c4a57607f821691505b60208210811415610c5e57610c5d610c95565b5b50919050565b610c6d82610cf3565b810181811067ffffffffffffffff82111715610c8c57610c8b610cc4565b5b80604052505050565b7f4e487b7100000000000000000000000000000000000000000000000000000000600052602260045260246000fd5b7f4e487b7100000000000000000000000000000000000000000000000000000000600052604160045260246000fd5b6000601f19601f8301169050919050565b7f4f776e61626c653a206e6577206f776e657220697320746865207a65726f206160008201527f6464726573730000000000000000000000000000000000000000000000000000602082015250565b7f446570656e64616e743a204e6f7420616e20696e6a6563746f72000000000000600082015250565b7f496e697469616c697a61626c653a20636f6e747261637420697320616c72656160008201527f647920696e697469616c697a6564000000000000000000000000000000000000602082015250565b7f4f776e61626c653a2063616c6c6572206973206e6f7420746865206f776e6572600082015250565b610dfd81610bac565b8114610e0857600080fd5b50565b610e1481610bbe565b8114610e1f57600080fd5b5056fea2646970667358221220cf480be9dcdc94bbc0734ea8c6bbcdf98fc89a4575648e41decb6aab3b8db3d464736f6c63430008040033",
  "linkReferences": {},
  "deployedLinkReferences": {}
}